:030000000213DD0B
:0C13DD00787FE4F6D8FD7581210214240D
:1011E00053544338395335322052656164204A598B
:1011F000393031206D6F64756C652064656D6F0DDD
:101200000A002D2D2D2D2D2D2D2D2D2D2D2D2D4249
:10121000593A4A595A4B2D2D2D2D2D2D2D2D2D2D31
:101220002D2D2D0D0A002D2D2D687474703A2F2F41
:10123000526F626F74436F6E74726F6C2E74616F55
:1012400062616F2E636F6D2D2D2D0D0A0054696D37
:10125000653A323025642D25642D25642025643AB5
:1012600025643A252E33660D0A004163633A252E24
:10127000336620252E336620252E33660D0A00475F
:1012800079726F3A252E336620252E336620252E5F
:1012900033660D0A00416E676C653A252E33662071
:1012A000252E336620252E33660D0A004D61673AE0
:1012B00025642025642025640D0A0050726573732F
:1012C0007572653A256C7820486569676874252EC3
:1012D00032660D0A00445374617475733A256420B4
:1012E00025642025642025640D0A004C6F6E676913
:1012F000747564653A256C64446567252E35666DA2
:10130000204C61747469747564653A256C64446535
:1013100067252E35666D0D0A00475053486569678D
:1013200068743A252E31666D204750535961773ADB
:10133000252E316644656720475053563A252E3393
:0A134000666B6D2F680D0A0D0A00A0
:10000300EF1FAA0670011E4A6013E4FCFDC3ED94C2
:0D00130064EC940050EA0DBD00010C80F07B
:0100200022BD
:100B2900E4900055F0758920758DFD758BFDD28E89
:100B3900D299D29CC29FD29ED2AFD2AC7BFF7A11FE
:100B490079E01207117BFF7A1279021207117BFFF4
:100B59007A1279261207117F0A7E0012000390008B
:100B69003DE0FF900059E4F0A3EFF090003EE0FF74
:100B790090005BE4F0A3EFF090003FE0FF90005D90
:100B8900E4F0A3EFF0900040E0FF90005FE4F0A3F1
:100B9900EFF0900041E0FF900061E4F0A3EFF090E6
:100BA9000043E0FCA3E0FDE41202C9E4FBFA797A10
:100BB9007844120227C004C005C006C0079000424D
:100BC900E0FCE41202CEA804A905AA06AB07D007E7
:100BD900D006D005D00412002D9000631205867B43
:100BE900FF7A12794D12071190002DE0FCA3E0FD68
:100BF900EC1202C9E4FBFAF97847120227E4FBFA7E
:100C09007980784112011E90005912058690002FB3
:100C1900E0FCA3E0FDEC1202C9E4FBFAF978471203
:100C29000227E4FBFA7980784112011E90005D12D7
:100C39000586900031E0FCA3E0FDEC1202C9E4FB5B
:100C4900FAF97847120227E4FBFA79807841120110
:100C59001E9000611205867BFF7A12796A120711CC
:100C690090004DE0FCA3E0FDEC1202C9E4FBFAF9A7
:100C79007847120227E4FBFA79FA784412011E90A8
:100C8900005912058690004FE0FCA3E0FDEC12022A
:100C9900C9E4FBFAF97847120227E4FBFA79FA78F2
:100CA9004412011E90005D120586900051E0FCA3DC
:100CB900E0FDEC1202C9E4FBFAF97847120227E4D5
:100CC900FBFA79FA784412011E9000611205867BBD
:100CD900FF7A12797F120711900025E0FCA3E0FD4D
:100CE900EC1202C9E4FBFAF97847120227E4FBFA8D
:100CF9007934784312011E90005912058690002715
:100D0900E0FCA3E0FDEC1202C9E4FBFAF978471212
:100D19000227E4FBFA7934784312011E90005D1230
:100D29000586900029E0FCA3E0FDEC1202C9E4FB72
:100D3900FAF97847120227E4FBFA79347843120169
:100D49001E9000611205867BFF7A127995120711B0
:100D59007BFF7A1279AC900045E0FFA3E09000593F
:100D6900CFF0A3EFF0900047E0FFA3E090005BCF46
:100D7900F0A3EFF0900049E0FFA3E090005DCFF011
:100D8900A3EFF0120711900035E0FCA3E0FDA3E00A
:100D9900FEA3E0FF900059120586900039E0FCA3FC
:100DA900E0FDA3E0FEA3E0FFEC1202C4E4FBFA7944
:100DB900C8784212022790005D1205867BFF7A12DD
:100DC90079BB1207117BFF7A1279D5900015E0FFE4
:100DD900A3E0900059CFF0A3EFF0900017E0FFA334
:100DE900E090005BCFF0A3EFF0900019E0FFA3E0E3
:100DF90090005DCFF0A3EFF090001BE0FFA3E0901F
:100E0900005FCFF0A3EFF01207117B807A967998F3
:100E1900780090001DE0FCA3E0FDA3E0FEA3E0FF45
:100E29001214D19000591205867B807A96799878A8
:100E39000090001DE0FCA3E0FDA3E0FEA3E0FF128B
:100E490014D1AC00AD01AE02AF03EC1202C47B00B9
:100E59007A5079C3784712022790005D1205867B84
:100E6900807A9679987800900021E0FCA3E0FDA3B0
:100E7900E0FEA3E0FF1214D19000611205867B8089
:100E89007A9679987800900021E0FCA3E0FDA3E030
:100E9900FEA3E0FF1214D1AC00AD01AE02AF03EC2A
:100EA9001202C47B007A5079C37847120227900056
:100EB900651205867BFF7A1279EB12071190000DF6
:100EC900E0FCA3E0FDEC1202C9E4FBFA79207841C9
:100ED90012022790005912058690000FE0FCA3E04A
:100EE900FDEC1202C9E4FBFA79207841120227903D
:100EF900005D120586900011E0FCA3E0FDA3E0FE71
:100F0900A3E0FFEC1202C4E4FBFA797A78441202F6
:100F1900279000611205867BFF7A13791912071150
:030F2900020B6058
:03002300021515AE
:10151500C0E0C0F0C083C082C0D075D000C000C09C
:1015250001C002C003C004C005C006C0073098074B
:10153500C298AF99120F2CD007D006D005D004D091
:1015450003D002D001D000D0D0D082D083D0F0D04B
:02155500E03282
:1014690048003D000000000000000048002D000079
:1014790000000000000048004D00000000000000CE
:101489000048002500000000000000004800450059
:1014990000000000000000480015000000000000E6
:1014A9000000480035000000000000000048001D51
:1014B900000000000000000048000D0000000000CE
:0714C90000000041000C00CF
:10134A00900086EBF0A3EAF0A3E9F0A3E0FBA3E0A8
:10135A00FAA3E0F9900003120517FF900086E0FB5C
:10136A00A3E0FAA3E0F9EF120544900089E0FBA399
:10137A00E0FAA3E0F9900002120517FF900086E058
:10138A00FBA3E0FAA3E0F9900001EF1205569000E2
:10139A0089E0FBA3E0FAA3E0F9900001120517FF28
:1013AA00900086E0FBA3E0FAA3E0F9900002EF12B6
:1013BA000556900089E0FBA3E0FAA3E0F91204FEC7
:1013CA00FF900086E0FBA3E0FAA3E0F9900003EFA8
:0313DA00020556B3
:100F2C0090000CE0FE04F074002EF582E43400F521
:100F3C0083EFF0900000E0645560030211DA90003A
:100F4C000CE0C3940B500122900001E024B0B409D2
:100F5C000040030211DA900F7075F003A4C58325CD
:100F6C00F0C58373020F8B020FCD021007021041E4
:100F7C0002108F0210DC02112F02116E02119B90D5
:100F8C000002E090003DF0900003E090003EF090F5
:100F9C000004E090003FF0900005E0900040F090DD
:100FAC000006E0900041F0900007E0900042F090C5
:100FBC000009E0FE900008E0FDEDFF9000430211F7
:100FCC0027900003E0FE900002E0FDEDFF90002D65
:100FDC00EEF0A3EFF0900005E0FE900004E0FDEDD4
:100FEC00FF90002FEEF0A3EFF0900007E0FE9000D2
:100FFC0006E0FDEDFF900031021127900003E0FEAA
:10100C00900002E0FDEDFF90004DEEF0A3EFF090AC
:10101C000005E0FE900004E0FDEDFF90004FEEF0C7
:10102C00A3EFF0900007E0FE900006E0FDEDFF90CE
:10103C000051021127900003E0FE900002E0FDED4C
:10104C00FF900025EEF0A3EFF0900005E0FE90007D
:10105C0004E0FDEDFF900027EEF0A3EFF090000709
:10106C00E0FE900006E0FDEDFF900029EEF0A3EF0E
:10107C00F0900009E0FE900008E0FDEDFF90002BE1
:10108C00021127900003E0FE900002E0FDEDFF90BE
:10109C000045EEF0A3EFF0900005E0FE900004E0B8
:1010AC00FDEDFF900047EEF0A3EFF0900007E0FE9F
:1010BC00900006E0FDEDFF900049EEF0A3EFF090FC
:1010CC000009E0FE900008E0FDEDFF90002B804B46
:1010DC00900003E0FE900002E0FDEDFF900015EEA5
:1010EC00F0A3EFF0900005E0FE900004E0FDEDFFB2
:1010FC00900017EEF0A3EFF0900007E0FE900006D2
:10110C00E0FDEDFF900019EEF0A3EFF0900009E088
:10111C00FE900008E0FDEDFF90001BEEF0A3EFF059
:10112C000211DA9000027412F0A37434F0A3745616
:10113C00F0A37478F09000897401F0A37400F0A30C
:10114C007402F07B017A00793512134A900089748D
:10115C0001F0A37400F0A37406F07B017A007939D6
:10116C0080699000897401F0A37400F0A37402F0FC
:10117C007B017A00791D12134A9000897401F0A347
:10118C007400F0A37406F07B017A007921803C9006
:10119C000003E0FE900002E0FDEDFF90000DEEF08C
:1011AC00A3EFF0900005E0FE900004E0FDEDFF9051
:1011BC00000FEEF0A3EFF09000897401F0A374001F
:1011CC00F0A37406F07B017A00791112134AE490B3
:0311DC00000CF014
:0111DF0022ED
:10002600020337E86480F8E933E83360110460F0CE
:10003600ED33EC337009E8FCE9FDEAFEEBFF220440
:1000460060DED3EB9FEA9EE99DE8C2E78CF0C2F73B
:1000560095F0400CE8CCF8E9CDF9EACEFAEBCFFB07
:1000660012030285D0F05804700320D5B3E804705B
:10007600075002B2D502034192D5EC0460F7E4CCF6
:10008600C0E0C398F8603B94186008400DD0E0FBD0
:10009600020319E4FBFAC9FC8028E830E406E4C947
:1000A600FBE4CAFCE830E305E4C9CACBFCE8540724
:1000B6006010F8C3E913F9EA13FAEB13FBEC13FC2F
:1000C600D8F130F52FC3E49CFCEF9BFFEE9AFEEDD2
:1000D60099FDD0E0FBEF4E4D4C701222DB0302037C
:1000E6003EEC2CFCEF33FFEE33FEED33FDED30E757
:1000F600EB020319EF2BFFEE3AFEED39FDD0E0FBE4
:1001060050130BBB0003020341ED13FDEE13FEEF8C
:0801160013FFEC13FC020319B6
:10011E00EC4D6011E8497017ED33EC3304600DE4DB
:10012E00FCFFFEFD22E933E8330470F802033712B8
:10013E00030258046009E4CC2481500628500902B9
:10014E00034128400302033EC0E0EB4A7044B980ED
:10015E0006D0E0FB02032DEF4E701CBD8008EBFFB6
:10016E00EAFEE9FD80EBE98DF0A4FEE5F002020760
:10017E00E9CDF9EAFEEBFFEF89F0A4FCE5F0CE89BC
:10018E00F0A42EFFE435F0CD89F0A42DFEE435F079
:10019E008067EF4E7005BD80D780C3EF8BF0A4ACA7
:1001AE00F0EE8BF0A42CFCE435F0F8EF8AF0A42CE2
:1001BE00E5F038FCE433CB8DF0A42CFCE5F03BF8F5
:1001CE00EE8AF0A42CFCE5F038F8E433CF89F0A4E5
:1001DE002CFCE5F038CF3400CE89F0A42FFFE5F0EB
:1001EE003EFEE433C98DF0A42EFEE5F039CD8AF043
:1001FE00A42FFFE5F03EFEE43DFD33D0E0FB5007BB
:10020E000BBB000F020341EC2CFCEF33FFEE33FE71
:06021E00ED33FD0203199F
:10022400020341EC5D046005E859047003020337DE
:10023400120302580460F6EC4860F2EC7004FDFE10
:10024400FF22C860DB2481C85009C39860025006AD
:1002540002033E9850CAF582E9294B4A7005AB82E5
:1002640002032D75F0007C1A7880C3EF9BEE9AEDA3
:1002740099400DC3EF9BFFEE9AFEED99FDE842F025
:10028400DC23ACF0D0E0FFD0E0FED0E0FDAB822078
:10029400E7101BEB60BAEC2CFCEF33FFEE33FEED02
:1002A40033FD020319E803F830E705C0F075F000E8
:1002B400EF2FFFEE33FEED33FD40B830E7C280AAE6
:1002C40075F020800E75F010800575F0087D007EB5
:1002D400007F003392D530D503120578EC334010FB
:1002E400EF33FFEE33FEED33FDEC33FCD5F0ED22BE
:0E02F400E5F0247EA2D513CC92E7CDCEFF22FA
:1006A600E5082459F582E43400F583E00508229034
:1006B6000056300703900059E475F00112059202C6
:1006C60004FE2000E97F2ED2008018EF540F2490FC
:1006D600D43440D4FF30040BEF24BFB41A005003C7
:1006E6002461FFE50960021509050CE50C70020599
:1006F6000B30070E900056E475F001120592EF02DA
:1007060005440215577403D2078003E4C207F508AF
:100716009000561205A9E4F509F50BF50CE50960FC
:10072600077F201206E980F5750AFFC201C200C2E2
:1007360002C203C205C206C2081206B5FF700D301A
:1007460007057F001206FAAF0CAE0B22B4255FC276
:10075600D5C2041206B5FF24D0B40A00501A75F0AB
:100766000A780930D50508B6FF0106C6A426F62084
:10077600D5047002D20380D924CFB41A00EF5004F6
:10078600C2E5D2040209ECD20180C6D20080C0D2F2
:100796000280BCD2D580BAD20580B47F201206E989
:1007A6002002077401B5090040F11206A6FF1206E1
:1007B600E9020723D208D20680951206A6FB120686
:1007C600A6FA1206A6F94A4B700679EA7A0A7BFF60
:1007D60020022EE509602A7E008E827583001205AE
:1007E6001760060EEE650A70F0C2D5EBC0E0EAC0EF
:1007F600E0E9C0E0EE120A4DD0E0F9D0E0FAD0E030
:10080600FB1204FEFF60AAEBC0E0EAC0E0E9C0E02C
:100816001206E9D0E02401F9D0E03400FAD0E0FB7A
:10082600E50A0460DCD50AD98087D20280A2120AC2
:100836002F60F7E50A70010412034CA90A600DE562
:100846000A600914F50A120AD7EF60F3EA30E702E4
:10085600F404C3995079EAF4250A0430E701E40464
:10086600F50A800D120A2F60C1EA050A250A12034D
:100876004CEA900085F030E701E4250A04D50A0425
:1008860020050114120A4DE4C0E0120AD790008533
:10089600E0601320E70714F01206D1802204F0D09E
:1008A600E014C0E07F001206D1E50A60071206C810
:1008B600150A800B3005031206C8D0E0020723D0C4
:1008C600E00480C4120A2F609EE50A0412034C90CD
:1008D6000085EAF0E50A2005026001042404120AF4
:0108E6004DC4
:1008E70074FF04C0E0120AD71206D1E50A200502F8
:1008F70060031206C8D0E0B50AE87F451206DB9010
:100907000085E07F2B30E7047F2DF404C0E012065A
:10091700E9D0E075F00A84C0F01206D2D0E01206E2
:10092700D2020723791080027908C206C20880081C
:10093700D2D5790A8004790AC2D5E50A047002F58E
:100947000AE4FAFDFEFF1206A6FC7B08200113123B
:1009570006A6FD7B1030000A1206A6FE1206A6FFA9
:100967007B20EC3382D592D55013C3E43000069F29
:10097700FFE49EFEE42001039DFDE49CFCE4CBF82C
:10098700C201EC700CCFCECDCCE824F8F870F38020
:1009970017C3EF33FFEE33FEED33FDEC33FCEB33E0
:1009A700FB994002FB0FD8E9EB300105F8D0E0C412
:1009B70048B201C0E00AEC4D4E4F78207B0070C270
:1009C700EAB50A0040BCC0E0120A4FD0F0D0E020E0
:1009D7000104C4C0E0C4B201C0F01206D2D0F0D501
:1009E700F0EB0207231205B207C053092B580791F2
:1009F7004C078D42092F4F09374409374907A6434A
:100A0700093D55086A4608CA450834470B0A500786
:100A1700952D07992E07BC2B079D2307BA200AF3AC
:100A27002A075548000007B4E50AB4FF03750A060C
:100A37001206A6FC1206A6FD1206A6FE1206A6FFC1
:100A470090007E020389790AA2D520031430050994
:100A5700B910020404B9080104A2D5200602500106
:100A6700042002689202B509005034C0E07F2030AC
:100A770003197F30A20272067205500F120AA6C22E
:100A870002C206C205C2087F30800F300503E9C0E5
:100A9700E01206E9300503D0E0F9D0E0B509CC3023
:100AA70005177F30B9100C1206E97F583004077F0D
:100AB700788003B908031206E93002057F2D020684
:100AC700E97F202008F87F2B2006F322920280CFAF
:100AD7007F00B40700500B247EF582E43400F583D1
:100AE700E0FF22286E756C6C2900D2011206A63031
:100AF70001F8C201780930D50108F60207552D50D3
:100B07004349581206A62403B405004001E4900B9C
:100B170005931206DA743A1206DAD203750904024B
:020B2700092B98
:10030200E9D2E7C933E833F892D5EDD2E7CD33EC41
:0703120033FC5002B2D522BA
:10031900EC30E7100FBF000C0EBE00080DBD000445
:100329000BEB6014A2D5EB13FCED92E7FD2274FFF1
:10033900FCFDFEFF22E480F8A2D574FF13FC7D804A
:03034900E480EF5E
:10034C00F920E73624F950037907E4F42402FBE59D
:10035C0082158270021583DBF6E024FB501BE960EA
:10036C0014E4F0E582158270021583E004F0B40AFF
:0D037C0008E4F0D9EE7401F00A22C2D52287
:10038900ED33EC3392D5FA602AB4FF33EDC2E77B43
:10039900FF60067A0379AEE4227A0379B720D5049F
:1003A9007A0379B2224E614E002B494E46002D49FF
:1003B9004E4600E47A08F0A3DAFC7B00740722C0F9
:1003C90083C082ECC0E0EDC0E0EEC0E0EFC0E0EA3F
:1003D90075F010A4CAABF075F04DA42BFBE435F011
:1003E900FCEA2410FAEB34C5FBEC34D9FCEDC2E786
:1003F900FF75F056A4F42411C5F0F434C58FF0A4A8
:100409002AE5F03BE43CF020E7141204BED0E0FFFB
:10041900D0E0FED0E0FDD0E0FC1202278014F40405
:100429001204BED0E0FFD0E0FED0E0FDD0E0FC1227
:10043900011ED082D083E0FAEDD2E7CD33EC33242C
:1004490082FBE4C3CF33CFCE33CECD33CD33DBF311
:100459007B0775F00A846004F0A31B0AE5F0F0A39A
:100469008FF0740AA4FFACF08EF0740AA42CFEACD1
:10047900F050010C8DF0740AA42CFDE435F0F0A3C2
:05048900DBDE74072218
:10048E003F8000004120000042C80000447A000076
:10049E00461C400047C35000497424004B189680F8
:1004AE004CBEBC205A0E1BCA6753C21C749DC5AEEF
:1004BE00FB60065407601C23231204ECEB543860D7
:1004CE00091204D81204E712011EECF8EDF9EEFA47
:1004DE00EFCB22EB1204E780F1543803241C900476
:1004EE008EFE93FC0EEE93FD0EEE930ECE93FF2238
:1013E900020B29E493A3F8E493A34003F68001F2E6
:1013F90008DFF48029E493A3F85407240CC8C33305
:10140900C4540F4420C8834004F456800146F6DFD3
:10141900E4800B0102040810204080901469E47EE6
:10142900019360BCA3FF543F30E509541FFEE493C8
:10143900A360010ECF54C025E060A840B8E493A38F
:10144900FAE493A3F8E493A3C8C582C8CAC583CABA
:10145900F0A3C8C582C8CAC583CADFE9DEE780BE72
:0114D000001B
:1004FE00BB010689828A83E0225002E722BBFE02FC
:09050E00E32289828A83E493222E
:10051700BB010CE58229F582E5833AF583E0225099
:1005270006E92582F8E622BBFE06E92582F8E222E3
:0D053700E58229F582E5833AF583E49322FD
:10054400BB010689828A83F0225002F722BBFE0196
:02055400F32290
:10055600F8BB010DE58229F582E5833AF583E8F0DB
:10056600225006E92582C8F622BBFE05E92582C887
:02057600F2226F
:1014D100C2D5E830E70FB2D5E4C39BFBE49AFAE446
:1014E10099F9E498F8EC30E717B2D512150712060E
:1014F10014E4C39BFBE49AFAE499F9E498F88003B5
:1015010012061430D50DE4C39FFFE49EFEE49DFD59
:04151100E49CFC2238
:0E057800C3E49FFFE49EFEE49DFDE49CFC2294
:0C058600ECF0A3EDF0A3EEF0A3EFF022E8
:10059200F8E0FBA3A3E0F925F0F0E58215827002F2
:0705A2001583E0FA38F02296
:0905A900EBF0A3EAF0A3E9F02253
:1005B200D083D082F8E4937012740193700DA3A3D8
:1005C20093F8740193F5828883E4737402936860EC
:0605D200EFA3A3A380DFEC
:10155700EFB40A07740D121562740A309811A8992E
:10156700B8130CC2983098FDA899C298B811F630F4
:0715770099FDC299F59922CC
:1005D80075F008758200EF2FFFEE33FECD33CDCCDA
:1005E80033CCC58233C5829BED9AEC99E58298405D
:1005F8000CF582EE9BFEED9AFDEC99FC0FD5F0D63A
:10060800E4CEFBE4CDFAE4CCF9A88222B800C1B963
:100618000059BA002DEC8BF084CFCECDFCE5F0CBA1
:10062800F97818EF2FFFEE33FEED33FDEC33FCEBDA
:1006380033FB10D703994004EB99FB0FD8E5E4F995
:10064800FA227818EF2FFFEE33FEED33FDEC33FC82
:10065800C933C910D7059BE99A4007EC9BFCE99A76
:10066800F90FD8E0E4C9FAE4CCFB2275F010EF2FBB
:10067800FFEE33FEED33FDCC33CCC833C810D707BB
:100688009BEC9AE899400AED9BFDEC9AFCE899F8F6
:0E0698000FD5F0DAE4CDFBE4CCFAE4C8F92289
:00000001FF
