:020000040800F2
:1000000050070020450100084D0100084F0100087D
:1000100051010008530100085501000800000000CC
:100020000000000000000000000000005701000870
:1000300059010008000000005B010008910F000852
:100040005F0100085F0100085F0100085F01000810
:100050005F0100085F0100085F0100085F01000800
:100060005F0100085F0100085F0100085F010008F0
:100070005F0100085F0100085F0100085F010008E0
:100080005F0100085F0100085F0100085F010008D0
:100090005F0100085F0100085F0100085F010008C0
:1000A0005F0100085F0100085F0100085F010008B0
:1000B0005F0100085F0100085F0100085F010008A0
:1000C0005F0100085F0100085F0100085F01000890
:1000D0005F010008BD100008451100085F0100081D
:1000E0005F0100085F0100085F0100085F01000870
:1000F0005F0100085F0100085F0100085F01000860
:100100005F0100085F0100085F0100085F0100084F
:100110005F0100085F0100085F0100085F0100083F
:100120005F0100085F0100085F0100085F0100082F
:10013000DFF80CD000F0DAFA004800472D1D000867
:10014000500700200648804706480047FEE7FEE7C4
:10015000FEE7FEE7FEE7FEE7FEE7FEE7FEE7FEE777
:100160002D1000083101000880EA010210B502F0EC
:100170000043400022D04A001FD0010E01EB126163
:10018000C0F35600C2F3560240F4000042F40002ED
:10019000A0FB022000047F39140400D0401C50EA68
:1001A000124001D44000491EC2B20C0604EBD0102C
:1001B000401C4008802A02D003E0002010BD20F03F
:1001C0000100002900DA0020184310BD30B480EA95
:1001D000010202F0004530F0004221F0004013D04F
:1001E00090B1C30DD40DC2F31601C0F31600E41A8A
:1001F00041F4000140F400027D34914201D3641CBB
:1002000000E04900002C02DA30BC002070474FF4B7
:1002100000000023914201D3891A034340084FEAAA
:100220004101F7D151B1914202D14FF0004105E0B7
:1002300002D24FF0010101E06FF0010103EBC45065
:10024000284430BC00F063B8C10F80EAE070084475
:10025000CA079623002100F063B800F0004230F096
:1002600000400AD0C10D01F56071C0F3160042EAEA
:100270000151C208400711437047002001467047F2
:1002800030B50B46014600202022012409E021FA66
:1002900002F59D4205D303FA02F5491B04FA02F563
:1002A0002844151EA2F10102F1DC30BD2DE9F05FFA
:1002B0000546002092469B468846064681464024D5
:1002C0001BE0284641464746224600F030FA534696
:1002D0005A46C01A914110D311461846224600F0E2
:1002E00017FA2D1A67EB01084F462246012000211C
:1002F00000F00EFA17EB00094E41201EA4F1010494
:10030000DFDC484631462A464346BDE8F09F0029D7
:10031000A8BF7047401C490008BF20F0010070478B
:1003200010B4B0FA80FC00FA0CF050EA010404BFEB
:1003300010BC704749B1CCF1200421FA04F411FA41
:100340000CF118BF012121430843A3EB0C01CB1D85
:100350004FEA00614FEA102042BF002010BC7047F6
:1003600000EBC35010440029A4BF10BC7047401CD0
:10037000490008BF20F0010010BC70472DE9FE4F76
:10038000804681EA0300C00F0C46009021F0004136
:1003900023F00045B8EB0200A94105D240462146B2
:1003A00090461C460B46024623F00040104347D0BF
:1003B000270DC7F30A00C3F30A510290401A0190B7
:1003C00040286BDAC3F3130040F4801B0098924678
:1003D00020B10023D2EB030A63EB0B0B01985946C3
:1003E000C0F14002504600F093F906460D465046D3
:1003F0005946019A00F0ABF910EB08006141002466
:1004000087EA115284EAE7731A4340D0009A62B334
:10041000019A012A4FEA075215DC001B61EB020129
:100420004FF0004202EA0752CDE90042001C41F5BC
:10043000801132462B4600F0ABF903B0BDE8F08FD7
:1004400040462146F9E7001B61EB0201001C41F523
:10045000801300185B412018A2F5001747EB030139
:1004600040EAD570B6196D4111E06D084FEA3606C5
:1004700045EAC0754FEA0752001B61EB0201001C00
:1004800041F5801149084FEA3000001951413246C8
:100490002B4603B0BDE8F04F00F06BB90098012285
:1004A00040000023D0EB020263EBE073009821468A
:1004B0004FEAE074B8EB000061EB0401E9E783F078
:1004C00000435BE781F0004158E72DE9FE4F81EAE8
:1004D000030404F0004421F0004100944FF0000BAD
:1004E00023F0004350EA01045ED052EA03045BD0DB
:1004F000C3F30A54C1F30A552C44A4F2F334019413
:10050000A0FB0254C1F3130141F48011C3F31303A0
:1005100043F4801301FB024400FB034E840A970A54
:1005200044EA815447EA8357A4FB076802958D0A81
:1005300005FB07854FEA932C04FB0C542705029D0D
:100540004FEA065847EA1637B5EB08056EEB070C7D
:10055000870E920E47EA811742EA8312A7FB020137
:10056000B6EB0B0164EB00042B0D43EA0C335E1871
:1005700044EB1C50DA465146E7FB0201C5F3130475
:100580004FEA0B3343EA14534FEA0432019C43EA27
:100590000603A4F10C040294009CCDE900B400F021
:1005A000F7F803B0BDE8F08F00200146F9E72DE928
:1005B000F04D81EA030404F0004B21F0004514469D
:1005C0004FF0000A23F0004150EA050220D054EA1F
:1005D00001021DD0C5F30A570246C5F31303C1F348
:1005E0001300C1F30A5640F4801543F48013A7EBBF
:1005F0000608101BD64608F2FD3873EB050002D33F
:1006000008F1010801E092185B41B8F1000F03DA2C
:1006100000200146BDE8F08D00204FF48011064611
:1006200084460EE0171B73EB050705D3121B63EB23
:10063000050306434CEA010C49084FEA30009218C2
:100640005B4150EA0107EDD152EA030012D082EA81
:10065000040083EA0501084305D0101BAB4106D214
:100660000122002306E000224FF0004302E06FF079
:10067000010253101AEB06004CEB085110EB0A0074
:1006800041EB0B01BDE8F04D00F073B8C1F30A5225
:10069000C1F3130140F2FF3341F480119A4202DAB0
:1006A00000200146704740F233439A42A2F233429F
:1006B00002DC524200F03BB800F02AB830B5041E0C
:1006C00071F1000404DB4FF00044404264EB01018F
:1006D000141E73F1000405DB1C464FF00043524228
:1006E00063EB0403994208BF904230BD064C074DAE
:1006F00006E0E06840F0010394E8070098471034F2
:10070000AC42F6D3FFF718FD402000086020000837
:10071000202A04DB203A00FA02F1002070479140C1
:10072000C2F1200320FA03F3194390407047202AB6
:1007300004DB203A21FA02F00021704721FA02F38B
:10074000D040C2F120029140084319467047202A48
:1007500006DBCB17203A41FA02F043EAE07306E0E9
:1007600041FA02F3D040C2F12002914008431946F9
:10077000704710B5141E73F1000408DA401C41F1F3
:10078000000192185B411A4301D120F0010010BD15
:100790002DE9F04D92469B4611B1B1FA81F202E08B
:1007A000B0FA80F220329046FFF7B2FF04460F46BF
:1007B00040EA0A0041EA0B0153465A46084313D067
:1007C000114653EA010019D0C8F140025046FFF724
:1007D000AEFF05460E46504659464246FFF798FF83
:1007E000084305D0012004E020463946BDE8F08DDD
:1007F0000020054346EAE0762C4337430A98630518
:10080000E40AA0EB08000022FD0A44EA47540A303B
:1008100002D500200146E9E7010510196941DDE92B
:10082000084500196941BDE8F04DA2E710B504463E
:10083000204600F02BFC10BD10B5044600F03CFA39
:100840001D4801780078401C1B4A10701B48445416
:100850000078552803D000201146087010BD1648B6
:1008600000780B2800DAF9E714484078512804D0C2
:1008700052280AD0532818D10FE011480F49891C7B
:100880000A680260496841600FE00E480B49891C04
:100890000A6802604968416007E00B480749891C03
:1008A0000A6802604968416000BF00BF0020024939
:1008B000087000BFD2E70000280000205000002090
:1008C000100000201800002020000020F8B5074686
:1008D0000C4615461E460121042000F04BFA01216A
:1008E000082000F047FA0121102000F043FA01210E
:1008F000202000F03FFA0121802000F03BFA6846FA
:1009000000F0EDF88DF803508DF80260A0B2ADF85C
:1009100000006946384600F001F8F8BD2DE9F041C5
:10092000024600250026002000230024002791F81D
:1009300003C00CF00F0591F803C00CF0100CBCF1D3
:10094000000F03D091F802C04CEA050591F800C0F1
:10095000BCF1000F31D0146800202BE04FF0010CE7
:100960000CFA00F3B1F800C00CEA03069E4220D155
:1009700083004FF00F0C0CFA03F7BC4305FA03FC9D
:100980004CEA040491F803C0BCF1280F06D14FF0E3
:10099000010C0CFA00FCC2F814C00AE091F803C084
:1009A000BCF1480F05D14FF0010C0CFA00FCC2F865
:1009B00010C0401C0828D1D31460B1F800C0BCF1AD
:1009C000FF0F34DD546800202EE000F1080C4FF0DA
:1009D000010808FA0CF3B1F800C00CEA03069E42C5
:1009E00021D183004FF00F0C0CFA03F7BC4305FA3A
:1009F00003FC4CEA040491F803C0BCF1280F05D1B4
:100A000000F1080C08FA0CF8C2F8148091F803C041
:100A1000BCF1480F07D100F1080C4FF0010808FAAB
:100A20000CF8C2F81080401C0828CED35460BDE8F2
:100A3000F0810000F0B50A460023002400210025C3
:100A400000F00046B6F1004F02D11D4EF16901E001
:100A50001B4E7168C0F3034583B200F44016B6F52F
:100A6000401F08D121F07061154E766826F070663F
:100A7000134F7E6012E000F48016B6F5801F06D199
:100A8000032606FA05F4A14341F0706106E0460D25
:100A9000360103FA06F6B14341F0706122B1460D0A
:100AA000360103FA06F6314300F00046B6F1004F76
:100AB00002D1034EF16101E0014E7160F0BD000012
:100AC0000000014002460020D3680B400BB101201A
:100AD00000E00020704741617047016170474FF6A8
:100AE000FF710180022181700421C17070470000F4
:100AF00010B586B00446012144F2040000F05AF912
:100B00004FF40070ADF8140018208DF81700032082
:100B10008DF8160005A92248FFF700FF4FF480600A
:100B2000ADF8140004208DF8170005A91C48FFF744
:100B3000F5FE01940020ADF80800ADF80A00ADF80C
:100B40000C00ADF810000C20ADF80E0001A91548FE
:100B500000F0B0FB002240F22771124800F084FB45
:100B6000012240F225510F4800F07EFB40210D4844
:100B700000F02CFB01210B4800F040FB25208DF8F4
:100B8000000001208DF8010007208DF802000120EF
:100B90008DF80300684600F0ABF806B010BD000009
:100BA000000801400038014010B586B0044601211C
:100BB000274800F0EFF80420ADF8140018208DF855
:100BC000170003208DF8160005A92248FFF7A6FE9E
:100BD0000820ADF8140004208DF8170005A91D4861
:100BE000FFF79CFE01940020ADF80800ADF80A0064
:100BF000ADF80C00ADF810000C20ADF80E0001A906
:100C0000154800F057FB002240F22771124800F00F
:100C10002BFB012240F225510F4800F025FB40211B
:100C20000D4800F0D3FA01210B4800F0E7FA262026
:100C30008DF8000001208DF8010008208DF80200D9
:100C400001208DF80300684600F052F806B010BD90
:100C500004000200000801400044004010B50121DA
:100C6000084600F0A7F801210848FFF7E3FE01213C
:100C7000042000F07FF801231022D1020448FFF77E
:100C800025FE01200349087010BD0000000230005D
:100C9000000801403400002010B50548007808B96C
:100CA000FFF7DCFF4FF400410248FFF716FF10BDCD
:100CB000340000200008014010B50B48007808B946
:100CC000FFF7CCFF4FF400410848FFF7FBFE28B1C7
:100CD0004FF400410548FFF7FEFE04E04FF40041E9
:100CE0000248FFF7FAFE10BD340000200008014062
:100CF00070B5002100230F22C47804B3154C24687A
:100D000004F4E064C4F5E064210AC1F10403CA40BC
:100D1000447804FA03F184781440214309010E4C0D
:100D20000678A155047804F01F050124AC4005782D
:100D30006D11AD0005F1E025C5F8004109E004782A
:100D400004F01F050124AC40044D0678761145F8E7
:100D5000264070BD0CED00E000E400E080E100E022
:100D600002490143024A1160704700000000FA0581
:100D70000CED00E029B1064A52690243044B5A6166
:100D800004E0034A52698243014B5A6170470000F4
:100D90000010024029B1064AD2690243044BDA61CD
:100DA00004E0034AD2698243014BDA6170470000D4
:100DB0000010024029B1064A92690243044B9A612D
:100DC00004E0034A92698243014B9A617047000034
:100DD0000010024030B500210022002400232D4DD8
:100DE0006D6805F00C0121B1042905D0082923D133
:100DF00005E0294D056022E0274D05601FE0254DE7
:100E00006D6805F47012234D6D6805F48034022579
:100E100005EB92421CB9214D554305600BE01D4D79
:100E20006D6805F400351DB11C4D5543056002E0A9
:100E3000194D5543056002E0174D056000BF00BF26
:100E4000144D6D6805F0F0010909154D6B5C0568DE
:100E5000DD4045600F4D6D6805F4E061090A104DF5
:100E60006B5C4568DD4085600A4D6D6805F4605136
:100E7000C90A0B4D6B5C4568DD40C560054D6D686A
:100E800005F44041890B074D6B5CC568B5FBF3F574
:100E9000056130BD0010024000127A0000093D00DB
:100EA000350000204500002010B500F001F810BD0D
:100EB0000CB50020019000903348006840F4803069
:100EC0003149086000BF3048006800F400300090ED
:100ED0000198401C0190009818B90198B0F5A06FD6
:100EE000F1D12948006800F4003010B101200090D1
:100EF00001E0002000900098012843D123480068B9
:100F000040F01000214908600846006820F0030006
:100F100008600846006840F0020008601A4840680F
:100F2000194948600846406848600846406840F4EF
:100F3000806048600846406820F47C10486008469D
:100F4000406840F4E81048600846006840F080704F
:100F5000086000BF0C48006800F000700028F9D05D
:100F60000948406820F00300074948600846406887
:100F700040F00200486000BF0348406800F00C00E9
:100F80000828F9D10CBD00000010024000200240EA
:100F90000120054908700548007820B10348007811
:100FA000401E0249087070472E0000202F000020CC
:100FB00038B504460D4600204FF0E021886105FB5E
:100FC00004F000EB4001C1EBC0104FF0E02148619C
:100FD00003200861E11704EB5171C1F3C701114A05
:100FE00011701046007800EB4001C1EBC0104FF6C5
:100FF000FF7101EAC0000C4908804FF4C060FFF7A0
:10100000AFFEFF208DF8000003208DF801000020C6
:101010008DF8020001208DF803006846FFF768FE96
:1010200038BD00002A0000202C00002010B5134815
:10103000006840F001001149086008464068104906
:1010400008400E494860084600680E4908400B49B0
:1010500008600846006820F4802008600846406860
:1010600020F4FE0048604FF41F008860FFF71CFF6B
:101070004FF000600449086010BD000000100240FD
:101080000000FFF8FFFFF6FE08ED00E010B5044693
:10109000074801780078401C054A10700548445400
:1010A000012240F22771044800F0DEF810BD000074
:1010B000330000204A0200200044004010B540F2F6
:1010C00027711C4800F0A6F8E0B11B4802780078B0
:1010D000401C194B18701948815C164800F056F9ED
:1010E0001548007816490978884205D1002240F257
:1010F0002771104800F0B8F840F227710D4800F051
:101100006EF810E040F225510A4800F083F850B123
:101110000849091D0988C8B2FFF788FB40F225512C
:10112000044800F05CF84FF45871024800F057F89A
:1011300010BD000000380140300000204A010020AE
:101140003100002010B540F227711C4800F062F811
:10115000E0B11B4802780078401C194B1870194800
:10116000815C164800F012F940F22771134800F034
:1011700036F81348007814490978884217D10022BC
:1011800040F227710D4800F06FF810E040F2255151
:101190000A4800F03FF850B10849091D0988C8B253
:1011A000FFF74AFB40F22551044800F018F84FF4CD
:1011B0005871024800F013F810BD000000440040D0
:1011C000320000204A0200203300002001F40072A7
:1011D000B2F5007F00D100BFCA430280704710B54E
:1011E0000022002340F66A14A14200D100BF0A1277
:1011F00001249440A3B2DC43048010BD21B1828954
:1012000042F40052828104E082894DF6FF731A4055
:101210008281704770B5024600240023002500201B
:1012200040F66A16B14200D100BFC1F3421501F089
:101230001F03012606FA03F3012D02D196893340DC
:1012400006E0022D02D1168A334001E0968A33402F
:101250000C12012606FA04F41688344013B10CB1BE
:10126000012000E0002070BDF0B5034600240026F8
:101270000025002040F66A17B94200D100BF184689
:10128000C1F3421401F01F06012707FA06F5012CED
:1012900001D10C3004E0022C01D1103000E01430F8
:1012A0001AB107682F43076002E00768AF43076081
:1012B000F0BD00002DE9F04786B005460E4600243B
:1012C000A24600BFA1460027B08900B100BF2F464B
:1012D0002C8A4CF6FF700440F08804432C82AC89C1
:1012E0004EF6F3100440B0883189084371890843F1
:1012F0000443AC81AC8A4FF6FF400440B0890443FC
:10130000AC8201A8FFF766FD1F48874202D1DDF8D5
:1013100010A001E0DDF80CA0A88900F4004040B165
:101320000AEBCA0000EB0A1031684900B0FBF1F883
:1013300007E00AEBCA0000EB0A1031688900B0FB35
:10134000F1F86420B8FBF0F004012009642101FBEE
:101350001089A88900F4004040B1322000EBC90098
:10136000B0FBF1F000F00700044308E0322000EB8E
:1013700009106421B0FBF1F000F00F0004432C8150
:1013800006B0BDE8F087000000380140C1F3080254
:10139000828070470FB4054B10B503A9044A029828
:1013A00000F0CAF810BC5DF814FB0000111D000825
:1013B0004C00002002E008C8121F08C1002AFAD120
:1013C00070477047002001E001C1121F002AFBD1C5
:1013D000704700002DE9FF5FDDE90220010DDDF817
:1013E00038B0024318D044F61050A1F2FF31414307
:1013F0000D140F98012820D0A5EB0B00401C5FEACC
:10140000000A4FF00004474EDFF81C91A0465046FA
:1014100016D5CAF1000728E00F98012443A201283D
:1014200008D0002100980F9BC0E90021C0E90243C9
:10143000BDE8FF9F6FEA0B01F4E7CBF10000DEE7A8
:10144000074612E0F80707D0224633464046494691
:10145000FFF73BF880468946224633461046194638
:10146000FFF733F804460E467F10002FEAD1DDE97E
:101470000201BAF1000F42464B4602DAFFF725F8A7
:1014800001E0FFF794F804460E460022284BFFF7D0
:1014900015F903D84FF0FF30014607E00022254B35
:1014A00020463146FEF76AFFFFF7F0F8102409E006
:1014B000002C0ADB0A220023FEF7F8FE019B3032E3
:1014C0001A55641E50EA0102F2D1641C019AC4F15B
:1014D000110314440F9A012A03D0012208430DD1AD
:1014E0000AE0084304D000204FF0110B0F9080E772
:1014F000A3EB0B056D1E0DE05B4504DD4FF0000214
:1015000005F1010504E003DA4FF00002A5F1010541
:10151000002AECD000980F99C0E90231C0E90045DB
:1015200086E70000000024400000F03F300000008B
:101530000000F0430000E03F2DE9FF4F95B09B46CF
:101540008946064600250FE2252877D10024274644
:10155000F84A0121059400E0044316F8013F203BBE
:1015600001FA03F01042F7D130782A2811D06FF039
:101570002F033078A0F13002092A16D8059A44F0DA
:10158000020402EB820203EB42021044761C059037
:10159000EFE759F8042B0592002A03DA504244F48D
:1015A0000054059044F00204761C30782E2816D1A1
:1015B00016F8010F44F004042A280DD06FF02F0212
:1015C0003078A0F13003092B09D807EB870302EB31
:1015D0004303C718761CF3E759F8047B761C307870
:1015E0006C280FD006DC4C2817D068280DD06A284C
:1015F00014D104E0742810D07A280FD10DE044F4FF
:1016000000140AE044F4801401E044F440147278B9
:10161000824202D104F58014761C761C307866284C
:101620000BD013DC582877D009DC002875D045286A
:10163000F6D04628F4D047281AD19DE118E0632857
:1016400035D0642879D0652812D195E1702873D0FF
:1016500008DC6728F1D069286FD06E280DD06F287C
:1016600006D1B5E073282CD0752875D0782874D0B1
:101670005A46179990476D1C75E1C4F30250022831
:1016800009D003280DD0D9F8001004280DD00D6022
:1016900009F1040967E1D9F80010EA17C1E900521D
:1016A000F6E7D9F800100D80F2E70D70F0E719F8B1
:1016B000041B8DF8001000208DF80100EA4601207F
:1016C00003E059F804AB4FF0FF3061074FF0000121
:1016D00002D40DE008F101018846B9420FDA8045D5
:1016E000F8DB1AF808100029F4D108E008F101012C
:1016F00088468142FADB1AF808100029F6D10598CD
:101700005B46A0EB080721463846179A00F094FA8A
:10171000284400EB080507E04DE029E10DE01AF848
:10172000010B5A4617999047B8F10108F7D25B466A
:1017300021463846179A13E142E00A220092C4F388
:1017400002524FF0000A022A08D059F804CB032AAB
:101750004FEAEC710AD00DE029E02AE009F1070117
:1017600021F00702F2E802C1914609E00FFA8CFC71
:101770004FEAEC71042A03D14FFA8CFC4FEAEC716A
:10178000002907DA0A460021DCF1000C61EB0201B6
:101790002D2202E0220504D52B228DF804200122FF
:1017A00003E0E20701D02022F7E7904659E00A2142
:1017B00002E010220DE010214FF0000A00910BE032
:1017C00010224FF0000A44F004040827009203E0BE
:1017D00008224FF0000A0092C4F30252022A05D0F8
:1017E00059F804CB0021032A08D009E009F10701C8
:1017F00021F00702F2E802C1914605E01FFA8CFCD5
:10180000042A01D10CF0FF0C4FF00008220728D564
:10181000702806D0009B83F0100353EA0A0305D01A
:101820000EE040228DF80420012208E05CEA01026B
:1018300006D030228DF804208DF805000222904653
:10184000009B83F0080353EA0A030AD15CEA010211
:1018500001D1620705D530228DF804204FF0010830
:101860007F1E582804D034A003900EA802900DE0EB
:1018700036A0F9E753466046009AFEF717FD844606
:101880000398825C0298401E029002705CEA01009C
:10189000F0D1029806A9081A00F1200A600702D5C3
:1018A00024F4803400E00127574502DDA7EB0A004D
:1018B00000E0002000EB0A01009005984144401A26
:1018C0000590E00306D45B462146179A059800F080
:1018D000B3F90544002706E001A85A46C05D1799F0
:1018E00090476D1C7F1C4745F6DBE0030CD55B463B
:1018F0002146179A059800F09FF9054404E030202E
:101900005A46179990476D1C0099481E009000296F
:10191000F5DC08E0029802995A460078491C0291C9
:10192000179990476D1CBAF10001AAF1010AF1DC88
:1019300065E1000009280100303132333435363793
:10194000383961626364656600000000303132330B
:1019500034353637383941424344454600000000AB
:1019600000F058F90544761C307800287FF4ECAD7F
:1019700019B02846BDE8F08F620700D4062709F1A8
:10198000070222F0070CFCE80223E14603F00048BE
:101990005FEA080C02D00FF2702C0DE05FEA045CE5
:1019A00002D50FF2682C07E05FEAC47C02D00FF288
:1019B000602C01E0AFF2700C4FF0FF3823F00043D1
:1019C000CDF850C065280CD006DC452809D0462843
:1019D0001DD047283DD13DE0662818D067287ED12C
:1019E00038E00021112F01DB112000E0781CCDE947
:1019F000000106A90EA8FFF7EDFCDDE90F010E9A24
:101A000003910021009207F1010A04914DE04FF08B
:101A100000400097CDE9011006A90EA8FFF7DAFCF7
:101A2000DDE90F0203920E9B11990022DDF80CA054
:101A30000093049211B9791C00EB010AB7EB0A007C
:101A400004D4C0F1FF3007F1010A0490AAEB0700AB
:101A5000019044E0012F00DA01270021112F01DD60
:101A6000112000E03846CDE9000106A90EA8FFF7D5
:101A7000B1FCDDE90F010E9A03910021049100925F
:101A8000BA4621070CD40399514500DA8A46BAF1C7
:101A9000010F05DD009AAAF10101515C302908D03F
:101AA000B84202DA10F1040F06DA0121CDE9011083
:101AB00015E0AAF10101E9E7002805DC04990144D9
:101AC0000491AAEB000102E0411C514500DD8A4669
:101AD0000499401A401C01904FF0004002902007EA
:101AE00004D40198504501DBCDF8048000208DF826
:101AF0004F0002980DF14F07B0F1004F25D02B2079
:101B00000E9002984FF0020800280CDA4042029032
:101B10002D200E9007E00A210298FEF7B1FB30312C
:101B2000029007F8011DB8F10001A8F10108F2DCEC
:101B300002980028EFD1791E0E980870307800F0D6
:101B4000200040F0450007F8020D12A8C01B00F16C
:101B500007081498007800B1012000EB0A010198F1
:101B600001EBE07105984144401A401E0590E003E6
:101B700006D45B462146179A059800F05DF80544A7
:101B80001498007818B15A46179990476D1CE003D5
:101B900024D55B462146179A059800F04DF8054478
:101BA0001CE00498002807DBDDE90301884203DD1F
:101BB0000098405C179901E0179930205A469047E9
:101BC000049805F10105401C04900198401E019005
:101BD00004D12E205A46179990476D1CBAF1000186
:101BE000AAF1010ADDDC05E017F8010B5A46179946
:101BF00090476D1CB8F10001A8F10108F4DC5B46C8
:101C00002146179A0598ABE62D0000002B00000036
:101C1000200000002DE9F041044600251E4617462D
:101C2000880404D405E039462020B0476D1C641EAA
:101C3000F9D52846BDE8F0812DE9F041044600259C
:101C40001E469046C80301D5302700E020278804AF
:101C500004D505E041463846B0476D1C641EF9D5F1
:101C60002846BDE8F081000030B503464FF0E0247F
:101C7000A169254C248803FB04F200204FF0E024E6
:101C80006469B2FBF4F4214D2C704FF0E0246469D8
:101C9000B2FBF4F504FB1520814215D9081A00BFE8
:101CA0001A4C2478002CFBD10A2806D200BF4FF032
:101CB000E024A4690A2CFAD824E000BF4FF0E02405
:101CC000A4698442FAD81DE0104C2478641C0F4D9E
:101CD0002C704FF0E02464690C44201A00BF0B4CB8
:101CE0002478002CFBD10A2806D200BF4FF0E02454
:101CF000A4690A2CFAD805E000BF4FF0E024A469DB
:101D00008442FAD830BD00002C0000202F000020B3
:101D100000BF054A128802F04002002AF9D0C2B280
:101D2000014B1B1D1A8070470038014086B000240B
:101D30000A214820FFF73CF94FF41650FEF7D8FE71
:101D40004FF4E130FEF730FFFEF7A6FF4FF47A7054
:101D5000FFF78AFF4FF47A70FFF786FFF3E04FF446
:101D60007A70FFF781FF601CC4B20A2C15DD0024D5
:101D700075A0FFF70FFB7A4800F056F979A0FFF73E
:101D800009FB6420FFF770FF7BA0FFF703FB7F4890
:101D900000F04AF97EA0FFF7FDFA82A0FFF7FAFAF9
:101DA0008A49B1F90400FEF74FFA83464FF08E419D
:101DB000FEF70CFA82464FF08341FEF7D5F98146D3
:101DC000FEF74BFA05460E468049B1F90200FEF7D0
:101DD0003BFA83464FF08E41FEF7F8F982464FF00A
:101DE0008341FEF7C1F98146FEF737FA0746884678
:101DF0007649B1F90000FEF727FA83464FF08E418D
:101E0000FEF7E4F982464FF08341FEF7ADF98146D3
:101E1000FEF723FA02460B46CDE90078CDE90256DB
:101E2000CDE904016AA0FFF7B5FA0A20FFF71CFF0D
:101E30006D49B1F90400FEF707FA83464FF08E4171
:101E4000FEF7C4F982466949FEF78EF98146FEF72E
:101E500004FA05460E466449B1F90200FEF7F4F9AA
:101E600083464FF08E41FEF7B1F982465F49FEF797
:101E70007BF98146FEF7F1F9074688465A49B1F9E0
:101E80000000FEF7E1F983464FF08E41FEF79EF920
:101E900082465649FEF768F98146FEF7DEF90246AA
:101EA0000B46CDE90078CDE90256CDE9040150A0FA
:101EB000FFF770FA0A20FFF7D7FE5349B1F9040083
:101EC000FEF7C2F983464FF08E41FEF77FF9824656
:101ED0004E49FEF749F98146FEF7BFF905460E4621
:101EE0004949B1F90200FEF7AFF983464FF08E4140
:101EF000FEF76CF982464549FEF736F98146FEF752
:101F0000ACF9CDE904014049B1F90000FEF79CF9B4
:101F100083464FF08E41FEF759F982463B49FEF762
:101F200023F98146FEF799F907460B46CDE902569B
:101F3000DDE904013A46CDE9000135A0FFF72AFAB0
:101F40000A20FFF791FE0AE7D5FDD4DABDF8D0D01C
:101F5000BCD3CBD9B6C8D0A3D7BC0D0A00000000B3
:101F600003000020BCD3CBD9B6C8D0A3D7BCCDEAE0
:101F7000B3C90D0A00000000BDF8D0D05AD6E1BDAB
:101F8000C7B6C8C7E5C1E30D0A0000000000002085
:101F90005AD6E1BDC7B6C8C7E5C1E3CDEAB3C90D9E
:101FA0000A0000002D2D2D2D2D2D2D2D2D2D2D2D0B
:101FB0002D2D2D2D2D2D2D2D2D2D2D2D2D2D2D2D51
:101FC0002D2D2D2D2D2D2D0D0A000000100000208F
:101FD0004163633A252E336620252E336620252E55
:101FE00033660D0A00000000180000200000FA44CB
:101FF0004779726F3A252E336620252E33662025C9
:102000002E33660D0A00000020000020000034433B
:10201000416E676C653A252E336620252E33662087
:10202000252E33660D0A000070B50546002404E035
:10203000285DFFF72BF8601CC4B2032CF8DB70BDE1
:10204000602000080000002050000000B4130008C9
:10205000B02000085000002000070000C413000852
:10206000FFAA52FFAA67FFAA60FFAA61FFAA620047
:102070000000000000000000000000000000000060
:102080000000000000000000000000000000000050
:102090000000000000000000000102030401020330
:1020A00004060708090204060800000000000000FA
:0400000508000131BD
:00000001FF
