:020000040800F2
:100000004813002045010008AD170008D51200086C
:10001000A917000893080008A52E0008000000009A
:100020000000000000000000000000006D1D00083E
:10003000FD0F000800000000E51900084D2700082A
:100040005F0100085F0100085F0100085F01000810
:100050005F0100085F0100085F0100085F01000800
:100060005F0100085F0100085F0100085F010008F0
:100070005F0100085F0100085F0100085F010008E0
:100080005F0100085F0100085F0100085F010008D0
:10009000012E00085F0100085F0100085F010008F1
:1000A0005F0100085F0100085F0100085F010008B0
:1000B0005F0100085F0100085F0100085F010008A0
:1000C0005F0100085F0100085F0100085F01000890
:1000D0005F010008A9280008312900085F01000815
:1000E0005F0100085F0100087B2B00085F0100082A
:1000F0005F0100085F0100085F0100085F01000860
:100100005F0100085F0100085F0100085F0100084F
:100110005F0100085F0100085F0100085F0100083F
:100120005F0100085F0100085F0100085F0100082F
:10013000DFF80CD000F0E2FA00480047E53A00088A
:10014000481300200648804706480047FEE7FEE7C0
:10015000FEE7FEE7FEE7FEE7FEE7FEE7FEE7FEE777
:10016000E927000831010008421C10F8011B002992
:10017000FBD1801A704780EA010210B502F00043FB
:10018000400022D04A001FD0010E01EB1261C0F3E3
:100190005600C2F3560240F4000042F40002A0FBF5
:1001A000022000047F39140400D0401C50EA1240A1
:1001B00001D44000491EC2B20C0604EBD010401C12
:1001C0004008802A02D003E0002010BD20F001008A
:1001D000002900DA0020184310BD30B480EA010283
:1001E00002F0004530F0004221F0004013D090B101
:1001F000C30DD40DC2F31601C0F31600E41A41F486
:10020000000140F400027D34914201D3641C00E0FF
:100210004900002C02DA30BC002070474FF4000087
:100220000023914201D3891A034340084FEA410158
:10023000F7D151B1914202D14FF0004105E002D215
:100240004FF0010101E06FF0010103EBC4502844BD
:1002500030BC00F063B8C10F80EAE0700844CA0700
:100260009623002100F063B800F0004230F0004017
:100270000AD0C10D01F56071C0F3160042EA0151C8
:10028000C20840071143704700200146704730B54F
:100290000B46014600202022012409E021FA02F544
:1002A0009D4205D303FA02F5491B04FA02F52844DE
:1002B000151EA2F10102F1DC30BD2DE9F05F05460B
:1002C000002092469B4688460646814640241BE015
:1002D000284641464746224600F031FA53465A46E0
:1002E000C01A914110D311461846224600F018FA60
:1002F0002D1A67EB01084F4622460120002100F02D
:100300000FFA17EB00094E41201EA4F10104DFDCB7
:10031000484631462A464346BDE8F09F0029A8BF1B
:100320007047401C490008BF20F00100704710B41E
:10033000B0FA80FC00FA0CF050EA010404BF10BCD3
:10034000704749B1CCF1200421FA04F411FA0CF100
:1003500018BF012121430843A3EB0C01CB1D4FEA39
:1003600000614FEA102042BF002010BC704700EB34
:10037000C35010440029A4BF10BC7047401C490062
:1003800008BF20F0010010BC70472DE9FE4F8046E9
:1003900081EA0300C00F0C46009021F0004123F0D9
:1003A0000045B8EB0200A94105D2404621469046DF
:1003B0001C460B46024623F00040104347D0270D51
:1003C000C7F30A00C3F30A510290401A0190402873
:1003D0006BDAC3F3130040F4801B0098924620B1FF
:1003E0000023D2EB030A63EB0B0B01985946C0F1D3
:1003F0004002504600F094F906460D4650465946D4
:10040000019A00F0ACF910EB08006141002487EA82
:10041000115284EAE7731A4340D0009A62B3019AFA
:10042000012A4FEA075215DC001B61EB02014FF075
:10043000004202EA0752CDE90042001C41F580115A
:1004400032462B4600F0ACF903B0BDE8F08F4046D1
:100450002146F9E7001B61EB0201001C41F5801306
:1004600000185B412018A2F5001747EB030140EA92
:10047000D570B6196D4111E06D084FEA360645EAB0
:10048000C0754FEA0752001B61EB0201001C41F5E9
:10049000801149084FEA30000019514132462B467D
:1004A00003B0BDE8F04F00F06CB9009801224000A5
:1004B0000023D0EB020263EBE073009821464FEA81
:1004C000E074B8EB000061EB0401E9E783F000435E
:1004D0005BE781F0004158E72DE9FE4F81EA030414
:1004E00004F0004421F0004100944FF0000B23F091
:1004F000004350EA01045ED052EA03045BD0C3F328
:100500000A54C1F30A552C44A4F2F3340194A0FB1D
:100510000254C1F3130141F48011C3F3130343F4F4
:10052000801301FB024400FB034E840A970A44EA4D
:10053000815447EA8357A4FB076802958D0A05FB9F
:1005400007854FEA932C04FB0C542705029D4FEAC4
:10055000065847EA1637B5EB08056EEB070C870E11
:10056000920E47EA811742EA8312A7FB0201B6EB1B
:100570000B0164EB00042B0D43EA0C335E1844EBD3
:100580001C50DA465146E7FB0201C5F313044FEA5B
:100590000B3343EA14534FEA0432019C43EA060347
:1005A000A4F10C040294009CCDE900B400F0F8F82A
:1005B00003B0BDE8F08F00200146F9E72DE9F04DCA
:1005C00081EA030404F0004B21F0004514464FF08B
:1005D000000A23F0004150EA050220D054EA01024B
:1005E0001DD0C5F30A570246C5F31303C1F3130028
:1005F000C1F30A5640F4801543F48013A7EB0608B4
:10060000101BD64608F2FD3873EB050002D308F143
:10061000010801E092185B41B8F1000F03DA0020F5
:100620000146BDE8F08D00204FF480110646844657
:100630000EE0171B73EB050705D3121B63EB0503D5
:1006400006434CEA010C49084FEA300092185B411E
:1006500050EA0107EDD152EA030012D082EA040009
:1006600083EA0501084305D0101BAB4106D20122E5
:10067000002306E000224FF0004302E06FF0010289
:1006800053101AEB06004CEB085110EB0A0041EB3B
:100690000B01BDE8F04D00F074B8C1F30A52C1F38C
:1006A000130140F2FF3341F480119A4202DA002034
:1006B0000146704740F233439A42A2F2334202DCD1
:1006C000524200F03CB800F02BB8000030B5041ED8
:1006D00071F1000404DB4FF00044404264EB01017F
:1006E000141E73F1000405DB1C464FF00043524218
:1006F00063EB0403994208BF904230BD064C074D9E
:1007000006E0E06840F0010394E8070098471034E1
:10071000AC42F6D3FFF710FD4C3E00086C3E0008DB
:10072000202A04DB203A00FA02F1002070479140B1
:10073000C2F1200320FA03F3194390407047202AA6
:1007400004DB203A21FA02F00021704721FA02F37B
:10075000D040C2F120029140084319467047202A38
:1007600006DBCB17203A41FA02F043EAE07306E0D9
:1007700041FA02F3D040C2F12002914008431946E9
:10078000704710B5141E73F1000408DA401C41F1E3
:10079000000192185B411A4301D120F0010010BD05
:1007A0002DE9F04D92469B4611B1B1FA81F202E07B
:1007B000B0FA80F220329046FFF7B2FF04460F46AF
:1007C00040EA0A0041EA0B0153465A46084313D057
:1007D000114653EA010019D0C8F140025046FFF714
:1007E000AEFF05460E46504659464246FFF798FF73
:1007F000084305D0012004E020463946BDE8F08DCD
:100800000020054346EAE0762C4337430A98630507
:10081000E40AA0EB08000022FD0A44EA47540A302B
:1008200002D500200146E9E7010510196941DDE91B
:10083000084500196941BDE8F04DA2E770B58C1874
:1008400010F8015B15F0070301D110F8013B2A11E4
:1008500006D110F8012B03E010F8016B01F8016BD1
:100860005B1EF9D12B0705D40023521E0DD401F8CD
:10087000013BFAE710F8013BCB1A921C03E013F896
:10088000015B01F8015B521EF9D5A142D8D30020CB
:1008900070BD00BFFEE70146CAB20B1243EA022058
:1008A0007047000008B50020009022E197480088BA
:1008B00000F00F00964908700846007800287CD1A7
:1008C00094480068944908800846008800F0300089
:1008D000924908809048008800F440508E49088072
:1008E0008C4909684BF6BF7201EA020080F400509F
:1008F00080F0200040F4004141F08001854A116001
:100900008248008800F0100090BB1046006848F64E
:100910000F7108401146086000F082FE7D490968A9
:100920004BF6BF7201EA02007B49098801F480514D
:1009300009B180F480507849098801F4005109B167
:1009400080F400507549098801F0100109B180F068
:1009500010007249098801F0200109B180F02000DF
:1009600081B241F4004141F080016A4A116008BD42
:10097000FFE76848006880B20090BDF8000000F40E
:100980000060B0B363480068C0F30E0048F68F7192
:1009900008406049086001F0B1FB5E4909684BF608
:1009A000BF7201EA02005C49098801F4805109B173
:1009B00080F480505849098800E056E001F4005165
:1009C00009B180F400505549098801F0100109B1BE
:1009D00080F010005149098801F0200109B180F030
:1009E000200081B241F4004141F08001494A116088
:1009F000BDE7FFE7BDF8000000F40040002878D014
:100A000044480068C0F30E0048F68F710840414921
:100A1000086000F0ABFF3F4909684BF6BF7201EA7E
:100A200002003D49098801F4805109B180F48050E9
:100A30003949098801F4005109B180F4005037495F
:100A4000098801F0100109B180F0100033490988CC
:100A500001F0200109B180F0200081B241F4004191
:100A600041F080012B4A116081E7294800782C4928
:100A700001EB8000D0F8000C80B20090BDF80000BF
:100A800000F40040C0B12248007801EB8000D0F8AB
:100A9000000CC0F30E0048F68F7108401C4909781D
:100AA0001F4A02EB8101C1F8000C19490978491E5F
:100AB0001C4A52F821008047BDF8000000F0800079
:100AC000B8B113480078164901EB8000D0F8000C4B
:100AD00048F60F7108400E490978114A02EB81016E
:100AE000C1F8000C0A490978491E0F4A52F8210042
:100AF000804708484430006880B20449088000F408
:100B0000004000287FF4D2AE00BF30E75C00002038
:100B100044010020005C0040580100205A010020E0
:100B20000050004084000020680000200146087842
:100B30004A7840EA022000B2704700000B4A02EBFC
:100B40008001D1F8001C01F4804171B102EB8001F9
:100B5000D1F8001C48F68F7211404CF2800211430C
:100B6000024B03EB8002C2F8001C704700500040AB
:100B70000B4A02EB8001D1F8001C01F0400171B179
:100B800002EB8001D1F8001C48F68F72114048F248
:100B9000C0021143024B03EB8002C2F8001C7047F5
:100BA00000500040084A02EB8001D1F8001C48F6D2
:100BB0008F62114048F280021143034B03EB800225
:100BC000C2F8001C704700000050004004490A7839
:100BD0000978491C024B197002498854704700007B
:100BE000080000205C0200202DE9F047284800683A
:100BF00000F110052E8826480068077AD6B9042F20
:100C000018D12448007801280FD10021224800681B
:100C100080B2801C214A42F8101030202049088000
:100C200000BF00201B49087003E0072710201C4963
:100C3000088027E0AC88A64201D8042000E002200A
:100C40000746B44200D93446A0B2A9688847804616
:100C5000002000F015FB8146A2B24946404602F052
:100C600023F9A1B2002001F035F92888001B288063
:100C700068882044688030200949088000020949BA
:100C8000088000BF024909680F72BDE8F0870000C4
:100C90004801002042010020505C004000600040FC
:100CA0005A010020580100202DE9F0412848006831
:100CB00000F110042688A068C0B1BEB1A588B54275
:100CC00000D93546A8B2A168884707462088401B4E
:100CD0002080608828446080002000F0AFFA8046C1
:100CE000AAB24146384600F069FE00BF208850B1E4
:100CF0004FF44050174908800021084601F0EAF8F7
:100D00003020154908802088A188884204DB032010
:100D10000F490968087218E02088002804DD0520C2
:100D20000B490968087210E0208870B9062008494C
:100D30000968087200210948006880B2801C084ACE
:100D400042F81010302004490880BDE8F08100000E
:100D500048010020580100205A010020505C00404A
:100D6000006000402DE9F84F9B4800684578002757
:100D7000BA46062D1BD198480068007800F07F0025
:100D8000002813D1944909688878012803D1934930
:100D90000968CF690AE0022803D1904909680F6AFF
:100DA00004E0032802D18D4909684F6A94E0002DC0
:100DB00064D189480068408800285FD1864800686F
:100DC000C08802285AD1844800680079002855D18B
:100DD00081480068007800F07F0028B97E480068EC
:100DE000808808B97E4F77E07B480068007800F083
:100DF0007F00012810D17849096848797749096846
:100E00008A6900219047002866D173480068807A7B
:100E1000002861D0724F5FE06F480068007800F0F2
:100E20007F00022858D16C480068407900F00F0616
:100E300069480068407900F07009674800684079A7
:100E400000F0800038B1674901EB8600D0F8000C53
:100E500000F0300806E0634901EB8600D0F8000C92
:100E600000F4405860480078B04235D9B9F1000F1D
:100E700032D1B8F1000F2FD0594F2DE0082D07D1F6
:100E800055480068007800F07F0028BB574F23E0EA
:100E90000A2D21D150480068007800F07F00012819
:100EA0001AD14D480068807AB0B14B48006840883C
:100EB00090B949480068007970B947480068C0880F
:100EC000012809D1444909684879444909688A696F
:100ED0000021904700B9464F57B13F480068A0F83D
:100EE00012A03D48006887610020B84700240FE049
:100EF000394A12685078394A12681169884704469D
:100F0000032C05D10920344909680872BDE8F88F1F
:100F100031480068008A4FF6FF71884204D10920E9
:100F20002D4909680872F1E7022C03D02A480068AD
:100F3000008A20B90820284909680872E6E726488F
:100F40000068007800F08000E0B323480068C088A3
:100F5000009021480068008A0099884204D91E49FF
:100F600000980968088223E01B480068008A1A4933
:100F70000968C98888421BDA17480068008A17493F
:100F8000096891F82C10884203DA0020194908708A
:100F90000EE011480068008A1049096891F82C1089
:100FA00090FBF1F201FB120010B901201149087009
:100FB0000A48006890F82C10074800688182FFF703
:100FC00013FE07E0FFE703200349096808720003E6
:100FD0000949088000BF99E7480100204C01002022
:100FE0009D23000800500040AC0000202123000891
:100FF000712300084201002058010020704700BF03
:101000000100A0F10100FBD17047000010B50024E1
:101010000F480078012819D140210E4801F02AFF1D
:1010200084B2002C0FDD2246C0210A4801F03CFFAB
:101030002146012000F04EFF012000F079FF002042
:101040000549086002E000200149087010BD000059
:1010500054000020880E00205800002010B50649DA
:10106000032001F0EFFE84B22146034801F0CCFEDC
:10107000032000F005FF10BDC80E002001490860E4
:101080007047000014040140002123498279002A9E
:101090003AD00A46126803689A430B461A600A1D42
:1010A000126803689A430B1D1A60027911440A689A
:1010B00003681A430A60184A0832126803689A43A0
:1010C000154B08331A601A1D126803689A43124BB5
:1010D0000C331A604279102A0ED11A1F1268036865
:1010E0001A430D4B08331A601A1D126803681A431D
:1010F000094B0C331A600DE00749427911440A6824
:1011000003681A430A6005E0027911440A6803681B
:101110009A430A6070470000000401402DE9F04145
:10112000024600250026002000230024002791F815
:1011300003C00CF00F0591F803C00CF0100CBCF1CB
:10114000000F03D091F802C04CEA050591F800C0E9
:10115000BCF1000F31D0146800202BE04FF0010CDF
:101160000CFA00F3B1F800C00CEA03069E4220D14D
:1011700083004FF00F0C0CFA03F7BC4305FA03FC95
:101180004CEA040491F803C0BCF1280F06D14FF0DB
:10119000010C0CFA00FCC2F814C00AE091F803C07C
:1011A000BCF1480F05D14FF0010C0CFA00FCC2F85D
:1011B00010C0401C0828D1D31460B1F800C0BCF1A5
:1011C000FF0F34DD546800202EE000F1080C4FF0D2
:1011D000010808FA0CF3B1F800C00CEA03069E42BD
:1011E00021D183004FF00F0C0CFA03F7BC4305FA32
:1011F00003FC4CEA040491F803C0BCF1280F05D1AC
:1012000000F1080C08FA0CF8C2F8148091F803C039
:10121000BCF1480F07D100F1080C4FF0010808FAA3
:101220000CF8C2F81080401C0828CED35460BDE8EA
:10123000F081416170470161704700000146054837
:10124000006880B200EBC100001D034A32F81000B4
:1012500080B27047505C0040006000400146064884
:10126000006880B200EBC100801D044A32F8100013
:10127000C0F3090070470000505C0040006000406F
:1012800001460548006880B200EBC100034A32F80D
:10129000100080B270470000505C004000600040C9
:1012A00070B50A480468001D0568001D06683444CE
:1012B00054B108220649204600F046FA04220449A7
:1012C0001031284600F040FA70BD0000E8F7FF1F1B
:1012D0002E00002000BFFEE700B500200F49086087
:1012E0000F48006820F470400D4908600846006807
:1012F00040F44050086000200A49C1F8AC010520C4
:10130000FFF77DFE0120054908600520FFF777FE05
:1013100000200449C1F8A80100BD0000A8812142B5
:10132000040C01400080214208B50121082000F092
:10133000F1FB4FF44060ADF8000010208DF8030081
:1013400003208DF8020069460B48FFF7E7FE0A48C4
:10135000001D006820F470400749091D0860084618
:10136000006840F4405008600120044908600449C6
:10137000C1F8A80108BD0000000C0140AC81214269
:101380000080214200B500200F4908600F48006826
:1013900020F470400D4908600846006840F4405051
:1013A000086001200A49C1F8AC010520FFF727FEBB
:1013B0000120054908600520FFF721FE00200449AF
:1013C000C1F8A80100BD0000A8812142040C014021
:1013D0000080214230B5044600231748006820F4FD
:1013E0007040154908600846006840F400400860F5
:1013F000002516E00020114908600520FFF7FFFDD9
:1014000001200F49C1F8A8015806030E0B487C388B
:10141000006808B1581CC3B20520FFF7F0FD681C36
:10142000C5B2082DE6DB14B1FFF756FF01E0FFF768
:10143000A9FF184630BD0000040C0140A8812142DC
:101440000080214210B503461548006820F4704022
:10145000134908600846006840F4405008600020C6
:1014600010490860002417E0D8090E49091D0860DA
:101470005806030E0220FFF7C2FD01200A49C1F8F9
:10148000A8010520FFF7BBFD0020064908600320E6
:10149000FFF7B5FD601CC4B2082CE5DB10BD0000F1
:1014A000040C0140A88121420080214200B50F4870
:1014B000006820F470400D4908600846006840F458
:1014C0004050086001200A4908600A49C1F8A80193
:1014D0000520FFF794FD0020054908600520FFF76F
:1014E0008EFD00200349C1F8A80100BD040C014095
:1014F000AC8121420080214200B50F48006820F4F1
:1015000070400D4908600846006840F4405008608B
:1015100000200A4908600A49C1F8AC010520FFF71C
:101520006EFD0120054908600549C1F8AC010520A0
:10153000FFF765FD00BD0000040C0140A8812142B9
:101540000080214200B500231748006820F4704055
:10155000154908600846006840F400400860012012
:10156000124908600520FFF74AFD0AE0581CC3B283
:10157000322B03DDFFF7C0FF012000BD0520FFF780
:101580003EFD0A48803800680028EFD10120074955
:10159000091F08600520FFF732FD00200449C1F84B
:1015A000A80100BFE9E70000040C0140AC81214222
:1015B000008021422DE9F0410546884616461F4627
:1015C0000024FFF773FF6906080EFFF73BFFFFF7E4
:1015D000B9FF4046FFF736FFFFF7B4FFFFF766FF9E
:1015E000012101EB4501C8B2FFF72CFFFFF7AAFF6D
:1015F00000BF0DE0701EA04204D00120FFF7EAFEFC
:10160000385503E00020FFF7E5FE3855601CC4B2F2
:10161000B442EFDBFFF770FF2046BDE8F081000029
:1016200010B518480068047A022C01D0042C05D1AA
:10163000FFF7DAFA13480068047A1CE0062C19D187
:1016400010480068407805280ED10E4800680078E0
:1016500000F07F0040B90B490968C87800F090FBA2
:1016600009490968086A8047084909688868804705
:10167000082400E00824034909680C7200F0B4F95A
:1016800010BD000048010020540100204C01002042
:1016900010B586B00446012144F2040000F03AFA85
:1016A0004FF40070ADF8140018208DF817000320D7
:1016B0008DF8160005A92248FFF730FD4FF4806031
:1016C000ADF8140004208DF8170005A91C48FFF799
:1016D00025FD01940020ADF80800ADF80A00ADF832
:1016E0000C00ADF810000C20ADF80E0001A9154853
:1016F00001F0CEF9002240F22771124801F0A2F960
:10170000012240F225510F4801F09CF940210D487B
:1017100001F04AF901210B4801F05EF925208DF80E
:10172000000001208DF8010007208DF80200012043
:101730008DF80300684600F03BF806B010BD0000CD
:10174000000801400038014030B50B46002100BFC1
:1017500016E00A24B4EB107F05D9302404EB107492
:1017600003F8114005E0412404EB10740A3C03F82F
:101770001140000100254C00641C1D554C1CE1B2B9
:101780009142E6DB30BD00000548817A19B10521A0
:10179000044A116002E00121024A11607047000012
:1017A000280F00203401002000BFFEE7704770477B
:1017B00070B5002100230F22C47804B3154C2468AF
:1017C00004F4E064C4F5E064210AC1F10403CA40F2
:1017D000447804FA03F184781440214309010E4C43
:1017E0000678A155047804F01F050124AC40057863
:1017F0006D11AD0005F1E025C5F8004109E0047860
:1018000004F01F050124AC40044D0678761145F81C
:10181000264070BD0CED00E000E400E080E100E057
:1018200002490143024A1160704700000000FA05B6
:101830000CED00E070B50226474800684478464841
:101840000068007800F07F00002844D1092C03D103
:1018500000F024FE06465FE0052C14D13E480068E7
:10186000C0787F280BDC3C480068807838B93A485B
:101870000068808818B938480068807A08B108255F
:1018800065E0002648E0032C0ED133480068C0789C
:10189000012807D130480068808818B900F022FE7E
:1018A000064639E0022637E0012C35D12A48006887
:1018B000C07801280DD128480068808848B926489A
:1018C0000068407A00F0200018B100F073FC064672
:1018D00022E0022620E020480068007800F07F0027
:1018E000012805D10B2C17D100F078FE064613E035
:1018F00019480068007800F07F0002280BD1012C05
:1019000003D100F057FC064606E0032C04D100F09A
:10191000FDFD064600E002264EB1E0B20F4A126815
:10192000516988470646032E01D109250FE00EB103
:1019300008250CE0062500210948006880B2801CBB
:10194000084A42F8101030200749088000BF0249B9
:1019500009680D7270BD0000480100204C01002094
:10196000505C0040006000405A01002010B5114852
:101970000068047A022C01D0042C01D1082412E062
:10198000032C01D0052C05D1FFF78EF9094800681A
:10199000047A08E0072C05D107490968C868804720
:1019A000082400E00824034909680C7200F01CF8C0
:1019B00010BD0000480100204C010020F0B5561C6D
:1019C0007510074E06EB41042B4605E034F8047B06
:1019D00020F8017B401C5B1E002BF7D1F0BD0000FE
:1019E000006000407047000010B50D4890F82C10C2
:1019F000002000F0FFF90B480068007A082805D1A4
:101A000040020949088010200849088005480068FC
:101A1000007A092801D1012010BD0020FCE7000058
:101A2000B000002048010020580100205A01002089
:101A300010B5012001F0A8F801240B480460002033
:101A40000A49088008460088074908600020091DE7
:101A500008604FF4E05005490880084600880249B4
:101A60000860002010BD0000405C004052010020D2
:101A700003461A60D960596099600020704770B5BC
:101A800003461446002200209A6800BF11E0DD687A
:101A90001E682E44551C2A46AE4200D8DA685D689E
:101AA000954200D107E011F8015B9E6835709A609D
:101AB000401CA042EBD300BF70BDF0B50346002030
:101AC0000EE05C68651C5D6027780546401C4F553C
:101AD000DC681D682C445D68AC4201D8DC685C6041
:101AE0005C689D68AC4204D0904202D21C6884427B
:101AF000E7D8F0BD29B1064AD2690243044BDA6146
:101B000004E0034AD2698243014BDA617047000066
:101B10000010024029B1064A92690243044B9A61BF
:101B200004E0034A92698243014B9A6170470000C6
:101B30000010024030B500210022002400232D4D6A
:101B40006D6805F00C0121B1042905D0082923D1C5
:101B500005E0294D056022E0274D05601FE0254D79
:101B60006D6805F47012234D6D6805F4803402250C
:101B700005EB92421CB9214D554305600BE01D4D0C
:101B80006D6805F400351DB11C4D5543056002E03C
:101B9000194D5543056002E0174D056000BF00BFB9
:101BA000144D6D6805F0F0010909154D6B5C056871
:101BB000DD4045600F4D6D6805F4E061090A104D88
:101BC0006B5C4568DD4085600A4D6D6805F46051C9
:101BD000C90A0B4D6B5C4568DD40C560054D6D68FD
:101BE00005F44041890B074D6B5CC568B5FBF3F507
:101BF000056130BD0010024000127A0000093D006E
:101C00000B0000201B000020014908607047000005
:101C1000D800424270B50546072D01D02E48057008
:101C20002D48007808284ED2DFE800F004111A2071
:101C30002B384E4F2948006828B900F053F8062089
:101C40002549087002E005202349087041E000F0B2
:101C500049F804202049087001202049086038E034
:101C600002201D4948700320087032E01A4840786D
:101C7000401E194948700846407808B90420087089
:101C800027E01748006884B244F010041448046048
:101C90000520114908700A2048701AE00E48407863
:101CA000401E0D4948700846407858B90C480068F5
:101CB00084B224F010040A48046006200870002052
:101CC0000649086005E000BF00BF06200249087011
:101CD00000BF00BF70BD0000390100203C010020A2
:101CE000405C004010B50748006884B224F004044A
:101CF00004480460FFF748FD4FF43F400149086085
:101D000010BD0000405C004010B50024134800687E
:101D1000052822D112480078F8B912490868411CF8
:101D2000104A1160052818D1002011460860402192
:101D30000D4801F09FF884B2002C0EDD2246C02130
:101D4000094801F0B1F82146012000F0C3F8012054
:101D500000F0EEF801200249087010BD34010020A7
:101D60005400002058000020880E0020704700001A
:101D70004FF6F8710140014A11607047505C004015
:101D800030B501460F4B1A78002014E003060E4CC4
:101D900004EB9353D3F8003C48F68F74234048F289
:101DA00080042343C4B223430406074D05EB945437
:101DB000C4F8003C401C9042E8D341F08003034C3F
:101DC000236030BDAC000020005000404C5C00405F
:101DD00010B54A105300054A126892B202EBC002D5
:101DE000121D034C44F8123010BD0000505C00403E
:101DF0000060004010B502460F48006880B200EB5A
:101E0000C200801D0D4C04EB40033E290BDD481140
:101E100001F01F040CB9441EA0B24FF4004444EA80
:101E200080241C6007E0481001F001040CB1441C40
:101E3000A0B284021C6010BD505C004000600040F5
:101E400030B50E4C04EB8003D3F8003C4BF68F7496
:101E500003EA040201F480530BB182F4805201F4CE
:101E600000530BB182F4005242F4004343F080036C
:101E7000024D05EB8004C4F8003C30BD005000402A
:101E800010B50B4B03EB8002D2F8002C4BF68F738E
:101E900002EA030181F4805181F4005141F40042CF
:101EA00042F08002024C04EB8003C3F8002C10BD0A
:101EB0000050004010B54A105200044B1B689BB202
:101EC00003EBC003024C44F8132010BD505C0040EB
:101ED00000600040044A126892B202EBC002921CF9
:101EE000024B43F812107047505C00400060004005
:101EF00030B50E4C04EB8003D3F8003C48F6BF74B9
:101F000003EA040201F010030BB182F0100201F0A9
:101F100020030BB182F0200242F4004343F080031F
:101F2000024D05EB8004C4F8003C30BD0050004079
:101F300010B50B4B03EB8002D2F8002C48F6BF73B0
:101F400002EA030181F0100181F0200141F4004216
:101F500042F08002024C04EB8003C3F8002C10BD59
:101F60000050004010B5074B03EB8002D2F8002C64
:101F700048F68F131A400A43024C04EB8003C3F85F
:101F8000002C10BD0050004010B500F001F810BD4D
:101F90000CB50020019000903348006840F4803078
:101FA0003149086000BF3048006800F400300090FC
:101FB0000198401C0190009818B90198B0F5A06FE5
:101FC000F1D12948006800F4003010B101200090E0
:101FD00001E0002000900098012843D123480068C8
:101FE00040F01000214908600846006820F0030016
:101FF00008600846006840F0020008601A4840681F
:10200000194948600846406848600846406840F4FE
:10201000806048600846406820F47C1048600846AC
:10202000406840F4E81048600846006840F080705E
:10203000086000BF0C48006800F000700028F9D06C
:102040000948406820F00300074948600846406896
:1020500040F00200486000BF0348406800F00C00F8
:102060000828F9D10CBD00000010024000200240F9
:1020700008B54FF4A06216491648FFF7F9FC4FF473
:10208000A06215491548FFF7F3FC01210802FFF78C
:1020900041FD4FF40060ADF8000003208DF8020010
:1020A00010208DF8030069460D48FFF737F84FF40C
:1020B0008020FEF7E3FF4FF480200A4908600820E3
:1020C0004871012088710846FEF7DEFF08BD000058
:1020D000880400206804002088090020780400207B
:1020E000002001402400002010B50020FFF78CFDE7
:1020F0000121C805FFF7FEFC10BD000038B5012422
:102100002948006880B2001D284931F8100080B2CB
:1021100001EB4000009026480068007A092832D080
:10212000009800782249096808700098401C0090C7
:10213000009800781E49096848700098401C00907B
:10214000009800EB44000090009931F8020B0091D8
:10215000FEF7A1FB164909684880009800EB44008F
:102160000090009931F8020B0091FEF794FB1049A2
:1021700009688880009800EB44000090009800886F
:102180000B490968C8800120094909680872084894
:102190000068C08810B9FFF74DFB01E0FEF7E2FDD3
:1021A000FFF722FC38BD0000505C0040006000409A
:1021B000480100202DE9F04754480068007800F0FD
:1021C0007F08B8F1000F0AD150480068407A00F04B
:1021D000DF004E49096848720020BDE8F087B8F179
:1021E000020F7CD149480068408818B94748006808
:1021F000007908B10220F0E7DFF814914348006845
:10220000477927F080052C4640480068407900F067
:10221000800038B13F4901EB8400D0F8000C00F099
:10222000300606E03B4901EB8400D0F8000C00F4D6
:10223000405699F80000A84204D91EB133480068FE
:10224000807A08B90220C8E707F0800080B13149E0
:1022500001EB8400D0F8000C00F0300010284BD1C6
:10226000E0B2FEF785FCE0B23021FFF741FE43E02B
:10227000284901EB8400D0F8000C00F44050B0F580
:10228000805F39D1E4B9244A92F82C10E0B2FFF70C
:10229000B1FD204A02EB8401D1F8001C4BF68F728D
:1022A00001EA020080F4805080F4005040F40041C4
:1022B00041F08001174B03EB8402C2F8001C1BE0C5
:1022C000E0B2FEF73BFC134A02EB8401D1F8001C9C
:1022D0004BF68F7201EA020080F4805000E011E0BA
:1022E00080F4005040F4004141F08001094B03EBC1
:1022F0008402C2F8001C00BF084909684869804789
:1023000000206AE700BF022067E7000048010020C4
:10231000AC00002000500040B0000020540100201C
:1023200010B504462CB9012006490968088200202E
:1023300010BD0549096808688047024800680A30EE
:10234000F6E70000480100205401002010B50246C5
:1023500006480068438A32B98888C01A034C24684A
:102360002082002010BD08681844FBE748010020C7
:1023700010B504462CB901200649096808820020DE
:1023800010BD0549096888688047024800680C301C
:10239000F6E70000480100205401002010B5044673
:1023A0002CB90220394909680882002010BD00209C
:1023B0003749088035480068007800F07F0018BB76
:1023C00032490968487A00F0200131B13049097872
:1023D00041F002012E4A117005E02D49097801F003
:1023E000FD012B4A117000F0400131B128490978F4
:1023F00041F00101264A117005E02549097801F0F4
:10240000FE01234A11703AE020480068007800F08D
:102410007F00012801D11E48C8E71C4800680078E9
:1024200000F07F00022828D1184A1268517901F083
:102430000F0001F080027AB1164B03EB8002D2F854
:10244000002C02F03002102A16D1114A127842F004
:1024500001020F4B1A700FE00E4B03EB8002D2F813
:10246000002C02F44052B2F5805F05D1084A127880
:1024700042F00102064B1A7001E0002096E706497F
:10248000096808698047024890E700004801002079
:1024900040010020005000405401002010B50E48BB
:1024A0000068C0780D494978884213DC0A48006802
:1024B000807878B908480068808858B9064800686C
:1024C000C0780549096888720549096848688047E5
:1024D000002010BD0220FCE748010020AC000020D5
:1024E0005401002010B507480068407A40F02000F1
:1024F00004490968487204490968C869804700208E
:1025000010BD000048010020540100202DE9F041D9
:102510002E480068467926F080073C462B48006824
:10252000407900F0800038B1294901EB8400D0F8EF
:10253000000C00F0300506E0254901EB8400D0F8DE
:10254000000C00F4405523480078A04208D91F48E9
:102550000068408820B91DB11C480068807A10B915
:102560000220BDE8F08106F08000A0B1184A02EB1D
:102570008401D1F8001C48F6BF7201EA020080F025
:10258000100040F4004141F08001114B03EB840244
:10259000C2F8001C14E00E4A02EB8401D1F8001CC2
:1025A0004BF68F7201EA020080F4805040F4004143
:1025B00041F08001064B03EB8402C2F8001C00BF0F
:1025C00005490968886980470020CAE7480100205A
:1025D00000500040AC0000205401002010B5174B03
:1025E0001B68D978154B1B685879154B1B689A697D
:1025F0009047044611480068807AE8B13CB90F481A
:102600000068007918B90D480068807808B1022088
:1026100010BD8CB90B490968C86880470748006835
:10262000407906490968C87204480068C0780349BF
:10263000096808730020EBE70220E9E74801002061
:102640004C0100205401002038B500210022002355
:102650000093394B1B6898B200BF09E0374C04EB7C
:102660008103D3F8003C9BB2354C44F82130491C1F
:102670000829F3D340F480602F4B186040F001002C
:10268000186020F00100186000BF2B4B1B1D1B6859
:1026900003F48063002BF8D04FF6FF33264C241D43
:1026A0002360002109E0264B53F821309BB2234DD3
:1026B00005EB8104C4F8003C491C0829F3D340F021
:1026C00008001D4B18601B6898B240F004001A4BBC
:1026D00018601C4B1B6800931A4B1A6822F0030207
:1026E00042F001021A60184B1B6843F00403164CB9
:1026F0002360114B1B1D1B6803F480532BB9234629
:102700001B6823F00403236014E04EF6FF730A4CA9
:10271000241D2360231F1B6898B220F00800231F8C
:102720001860084C009B2360074B1B6823F00403D0
:10273000054C236038BD0000405C00400050004064
:10274000080F00200070004010ED00E00120054956
:1027500008700548007820B103480078401E0249FF
:1027600008707047040000200500002038B50446BA
:102770000D4600204FF0E021886105FB04F000EBDE
:102780004001C1EBC0104FF0E02148610320086117
:10279000E11704EB5171C1F3C701114A11701046E2
:1027A000007800EB4001C1EBC0104FF6FF7101EA69
:1027B000C0000C4908804FF4C060FFF731F8FF20DB
:1027C0008DF8000003208DF8010000208DF8020034
:1027D00001208DF803006846FEF7EAFF38BD0000CF
:1027E000000000200200002010B51348006840F0EF
:1027F00001001149086008464068104908400E4928
:102800004860084600680E4908400B4908600846C1
:10281000006820F4802008600846406820F4FE002C
:1028200048604FF41F008860FFF7AEFB4FF0006078
:102830000449086010BD0000001002400000FFF8CD
:10284000FFFFF6FE08ED00E010B5044607480178EA
:102850000078401C054A107005484454012240F29B
:102860002771044800F0EEF810BD000007000020BA
:102870005C0100200038014010B504460FE02078CC
:102880000D2802D1FFF7E0FF08E020780A2802D1E6
:10289000FFF7DAFF02E02078FFF7D6FF641C20780C
:1028A0000028ECD110BD000010B540F227711C4883
:1028B00000F09EF8E0B11B4802780078401C194BEC
:1028C00018701948815C164800F053F915480078D3
:1028D00016490978884205D1002240F22771104834
:1028E00000F0B0F840F227710D4800F066F810E0F3
:1028F00040F225510A4800F07BF850B10849091D03
:102900000988C8B2FEF762F940F22551044800F088
:1029100054F84FF45871024800F04FF810BD000011
:1029200000380140060000205C0100200700002064
:1029300010B540F22771184800F05AF8E0B1174876
:1029400002780078401C154B18701548815C1248BD
:1029500000F00FF940F227710F4800F02EF80F48F1
:10296000007810490978884215D1002240F2277179
:10297000094800F067F80EE040F22551064800F0E3
:1029800037F840B1044800F0EFF8C4B240F22551E6
:10299000014800F012F810BD00440040090000207A
:1029A000560300200A00002001F40072B2F5007FF7
:1029B00000D100BFCA430280704710B50022002337
:1029C00040F66A14A14200D100BF0A1201249440CB
:1029D000A3B2DC43048010BD21B1828942F40052CD
:1029E000828104E082894DF6FF731A40828170472C
:1029F00070B50246002400230025002040F66A1628
:102A0000B14200D100BFC1F3421501F01F030126FE
:102A100006FA03F3012D02D19689334006E0022D18
:102A200002D1168A334001E0968A33400C12012607
:102A300006FA04F41688344013B10CB1012000E00A
:102A4000002070BDF0B503460024002600250020BC
:102A500040F66A17B94200D100BF1846C1F34214CC
:102A600001F01F06012707FA06F5012C01D10C30F1
:102A700004E0022C01D1103000E014301AB10768D4
:102A80002F43076002E00768AF430760F0BD000016
:102A90002DE9F04786B005460E460024A24600BF49
:102AA000A1460027B08900B100BF2F462C8A4CF602
:102AB000FF700440F08804432C82AC894EF6F3107A
:102AC0000440B08831890843718908430443AC81CC
:102AD000AC8A4FF6FF400440B0890443AC8201A8A1
:102AE000FFF728F81F48874202D1DDF810A001E067
:102AF000DDF80CA0A88900F4004040B10AEBCA0040
:102B000000EB0A1031684900B0FBF1F807E00AEB6E
:102B1000CA0000EB0A1031688900B0FBF1F86420AC
:102B2000B8FBF0F004012009642101FB1089A88999
:102B300000F4004040B1322000EBC900B0FBF1F0DE
:102B400000F00700044308E0322000EB0910642184
:102B5000B0FBF1F000F00F0004432C8106B0BDE89B
:102B6000F08700000038014001468888C0F3080063
:102B70007047C1F308028280704710B54FF480207F
:102B8000FEF77CFA10BD000010B504462CB94FF4D6
:102B900000610548FEF74DFB04E04FF40061024878
:102BA000FEF749FB10BD00000020014010B5FFF703
:102BB0005FFAFFF799FA00F021F800F001F810BD74
:102BC00010B50848084908600220096808720748DB
:102BD0000749086007480849086005490968086806
:102BE000804710BD280F002048010020B0000020C1
:102BF0004C010020E00000205401002008B5142002
:102C00008DF8000002208DF8010000208DF80200F0
:102C100001208DF803006846FEF7CAFD2A208DF8D2
:102C2000000000208DF801006846FEF7C1FD08BDD8
:102C300010B588B0002469480068694908800846D2
:102C4000008800F4007067490988084050B14FF6C9
:102C5000FF506249086064480078401C624908706F
:102C6000FFF752F85E48008800F400405D4909888B
:102C7000084008B1FDF716FE5948008800F480604E
:102C800058490988084030B14FF6FF305349086071
:102C90005649486880475248008800F4005051491E
:102CA0000988084018B14DF6FF704C4908604C483F
:102CB000008800F480504B490988084030B14EF636
:102CC000FF70464908600020FEF7A4FF44480088D2
:102CD00000F4006043490988084060B14448007826
:102CE00010B1FFF7B1FC02E00220FEF793FF4FF2B4
:102CF000FF703A4908603A48008800F4807039490A
:102D000009880840002866D04FF6FF603349086004
:102D1000081D006800F40040002856D035480068BF
:102D2000401C3449086008460068032850D92B48E5
:102D3000001F006800F00800002849D12748001F44
:102D4000006880B22C490860002408E02B4901EBA0
:102D50008400D0F8000C80B24DF82400641C082CCC
:102D6000F4D32548006840F0010023490860084674
:102D7000006880B21949091F08601F48006820F0E8
:102D800001001D4908600846006880B21349091F08
:102D9000086000BF1148006800F480600028F9D086
:102DA0004FF6FF300D490860002408E05DF824006C
:102DB00080B2124A02EB8401C1F8000C641C082C9A
:102DC000F4D300200B49086002E0002009490860A4
:102DD0000720FEF71FFF08B010BD0000445C004054
:102DE0005C000020520100205E000020B0000020A6
:102DF00038010020600000206400002000500040E6
:102E000010B5FFF715FF10BD70B504460D462A46F4
:102E100021460248FEF733FE70BD00006804002022
:102E20000020064908604FF43F40054908800846E5
:102E300000880249091F086000207047445C004078
:102E4000520100202DE9F04104460E46002504F011
:102E50007F00FEF703FA054604F07F00FEF7EEF967
:102E600007462A4639463046FEF7A8FD2846BDE803
:102E7000F081000070B504460D462A4621460248FE
:102E8000FEF71BFE70BD00007804002070B50446FC
:102E90000D462A4621460248FEF7F1FD70BD0000AE
:102EA0007804002000BFFEE7F0B5144604F1010CE1
:102EB0004FEA6C07DFF824C00CEB41033D460AE003
:102EC0000678401C90F800C046EA0C2223F8022B3A
:102ED0009B1C401C6D1E002DF2D1F0BD0060004017
:102EE00070B504460025212C08D1124800680078EE
:102EF00000F07F0021280ED10F4D0CE0202C0AD1CC
:102F00000C480068007800F07F00212800D10B4DAC
:102F100020200B4908700DB9022070BD05480068DB
:102F2000856100210348006841820020A8470020F5
:102F3000F3E70000480100206D2F0008FD30000875
:102F4000A000002010B5044602492046FFF7FEF914
:102F500010BD00000C01002010B5044602492046B7
:102F6000FFF7F4F910BD000004010020014629B963
:102F70000820034A12681082002070470148FCE7CD
:102F800048010020A400002070B5054606480068EE
:102F9000C478042C01DD002070BD044800EBC4019E
:102FA0002846FFF7D3F9F7E7480100201401002075
:102FB0000246002901DD02207047012A01DD0220BE
:102FC000FAE70020F8E700000146084800680078AA
:102FD00000F07F00212807D1022901D1002070478D
:102FE000222901D10020FAE70220F8E74801002059
:102FF00010B500203449096888723448C0793249D4
:1030000009684872002030490968C872FEF7B0FEAE
:103010004FF400710020FEF7A5FF10210020FEF7FD
:1030200067FF40210020FEF7D3FE80210020FEF73D
:1030300041FF0020FDF7B6FD254890F82C10002038
:10304000FEF7D8FE0020FEF71BFF00210120FEF74F
:1030500089FFC0210120FEF72DFF20210120FEF76E
:1030600047FF00210120FEF7EBFE4FF4C061022074
:10307000FEF778FF4FF480710220FEF71BFF00215E
:103080000220FEF7DDFE20210220FEF731FF0021A5
:103090000320FEF767FF4FF488710320FEF798FEC8
:1030A00040210320FEF7A6FE4FF440510320FEF717
:1030B000C7FE00210320FEF71BFF0020FEF760FE85
:1030C00001200449086010BD48010020723D00083D
:1030D000B0000020340100200348817A11B105219D
:1030E000024A116070470000280F002034010020C0
:1030F000042001490860704734010020014629B9C5
:103100000820034A12681082002070470148FCE73B
:1031100048010020A400002003480078202802D1A4
:103120000020014908707047A0000020704700008F
:1031300010B5FEF7B5F80020054909688872FEF75A
:1031400077FCFFF76DFE00200249086010BD00000B
:1031500048010020340100200FB4084B10B504A929
:1031600002AA039800F0CEF8044602A9002000F05D
:1031700060FC204610BC5DF814FB0000333A0008E8
:1031800002E008C8121F08C1002AFAD17047704730
:10319000002001E001C1121F002AFBD1704700008E
:1031A0002DE9FF5FDDE90220010DDDF838B00243B3
:1031B00018D044F61050A1F2FF3141430D140F987E
:1031C000012820D0A5EB0B00401C5FEA000A4FF05D
:1031D0000004474EDFF81C91A046504616D5CAF1B0
:1031E000000728E00F98012443A2012808D00021FD
:1031F00000980F9BC0E90021C0E90243BDE8FF9F92
:103200006FEA0B01F4E7CBF10000DEE7074612E0BE
:10321000F80707D02246334640464946FDF75CF999
:10322000804689462246334610461946FDF754F932
:1032300004460E467F10002FEAD1DDE90201BAF103
:10324000000F42464B4602DAFDF746F901E0FDF772
:10325000B5F904460E460022284BFDF737FA03D88D
:103260004FF0FF30014607E00022254B2046314653
:10327000FDF78BF8FDF711FA102409E0002C0ADBAA
:103280000A220023FDF719F8019B30321A55641EFB
:1032900050EA0102F2D1641C019AC4F111031444F2
:1032A0000F9A012A03D0012208430DD10AE00843F6
:1032B00004D000204FF0110B0F9080E7A3EB0B051B
:1032C0006D1E0DE05B4504DD4FF0000205F10105C8
:1032D00004E003DA4FF00002A5F10105002AECD06A
:1032E00000980F99C0E90231C0E9004586E7000067
:1032F000000024400000F03F300000000000F043D8
:103300000000E03F2DE9FF4F95B09B4689460646F9
:1033100000250FE2252877D100242746F84A01210D
:10332000059400E0044316F8013F203B01FA03F046
:103330001042F7D130782A2811D06FF02F0330785F
:10334000A0F13002092A16D8059A44F0020402EBD3
:10335000820203EB42021044761C0590EFE759F815
:10336000042B0592002A03DA504244F400540590DD
:1033700044F00204761C30782E2816D116F8010F7E
:1033800044F004042A280DD06FF02F023078A0F109
:103390003003092B09D807EB870302EB4303C71857
:1033A000761CF3E759F8047B761C30786C280FD034
:1033B00006DC4C2817D068280DD06A2814D104E008
:1033C000742810D07A280FD10DE044F400140AE0DC
:1033D00044F4801401E044F440147278824202D133
:1033E00004F58014761C761C307866280BD013DC2C
:1033F000582877D009DC002875D04528F6D0462813
:10340000F4D047281AD19DE118E0632835D064280C
:1034100079D0652812D195E1702873D008DC67282F
:10342000F1D069286FD06E280DD06F2806D1B5E095
:1034300073282CD0752875D0782874D05A461799DF
:1034400090476D1C75E1C4F30250022809D003288F
:103450000DD0D9F8001004280DD00D6009F1040931
:1034600067E1D9F80010EA17C1E90052F6E7D9F888
:1034700000100D80F2E70D70F0E719F8041B8DF8CD
:10348000001000208DF80100EA46012003E059F801
:1034900004AB4FF0FF3061074FF0000102D40DE0A4
:1034A00008F101018846B9420FDA8045F8DB1AF8C5
:1034B00008100029F4D108E008F101018846814292
:1034C000FADB1AF808100029F6D105985B46A0EB44
:1034D000080721463846179A00F094FA284400EB72
:1034E000080507E04DE029E10DE01AF8010B5A4606
:1034F00017999047B8F10108F7D25B462146384644
:10350000179A13E142E00A220092C4F302524FF0EC
:10351000000A022A08D059F804CB032A4FEAEC71BA
:103520000AD00DE029E02AE009F1070121F00702A5
:10353000F2E802C1914609E00FFA8CFC4FEAEC7107
:10354000042A03D14FFA8CFC4FEAEC71002907DA08
:103550000A460021DCF1000C61EB02012D2202E0A1
:10356000220504D52B228DF80420012203E0E20776
:1035700001D02022F7E7904659E00A2102E010220C
:103580000DE010214FF0000A00910BE010224FF0E7
:10359000000A44F004040827009203E008224FF0D8
:1035A000000A0092C4F30252022A05D059F804CB53
:1035B0000021032A08D009E009F1070121F00702E0
:1035C000F2E802C1914605E01FFA8CFC042A01D101
:1035D0000CF0FF0C4FF00008220728D5702806D009
:1035E000009B83F0100353EA0A0305D00EE040224B
:1035F0008DF80420012208E05CEA010206D03022A6
:103600008DF804208DF8050002229046009B83F07F
:10361000080353EA0A030AD15CEA010201D16207F6
:1036200005D530228DF804204FF001087F1E582860
:1036300004D034A003900EA802900DE036A0F9E764
:1036400053466046009AFCF738FE84460398825C35
:103650000298401E029002705CEA0100F0D10298CC
:1036600006A9081A00F1200A600702D524F4803464
:1036700000E00127574502DDA7EB0A0000E000202B
:1036800000EB0A01009005984144401A0590E003C0
:1036900006D45B462146179A059800F0B3F9054415
:1036A000002706E001A85A46C05D179990476D1C97
:1036B0007F1C4745F6DBE0030CD55B462146179A95
:1036C000059800F09FF9054404E030205A46179908
:1036D00090476D1C0099481E00900029F5DC08E019
:1036E000029802995A460078491C0291179990470E
:1036F0006D1CBAF10001AAF1010AF1DC65E10000DC
:1037000009280100303132333435363738396162B7
:10371000636465660000000030313233343536377B
:1037200038394142434445460000000000F058F952
:103730000544761C307800287FF4ECAD19B028469B
:10374000BDE8F08F620700D4062709F1070222F0D6
:10375000070CFCE80223E14603F000485FEA080C8E
:1037600002D00FF2702C0DE05FEA045C02D50FF27C
:10377000682C07E05FEAC47C02D00FF2602C01E005
:10378000AFF2700C4FF0FF3823F00043CDF850C07B
:1037900065280CD006DC452809D046281DD04728CE
:1037A0003DD13DE0662818D067287ED138E0002161
:1037B000112F01DB112000E0781CCDE9000106A9E2
:1037C0000EA8FFF7EDFCDDE90F010E9A0391002131
:1037D000009207F1010A04914DE04FF0004000977C
:1037E000CDE9011006A90EA8FFF7DAFCDDE90F020A
:1037F00003920E9B11990022DDF80CA00093049215
:1038000011B9791C00EB010AB7EB0A0004D4C0F12E
:10381000FF3007F1010A0490AAEB0700019044E091
:10382000012F00DA01270021112F01DD112000E016
:103830003846CDE9000106A90EA8FFF7B1FCDDE985
:103840000F010E9A0391002104910092BA462107BC
:103850000CD40399514500DA8A46BAF1010F05DD0F
:10386000009AAAF10101515C302908D0B84202DA6D
:1038700010F1040F06DA0121CDE9011015E0AAF1DB
:103880000101E9E7002805DC049901440491AAEB51
:10389000000102E0411C514500DD8A460499401AAE
:1038A000401C01904FF000400290200704D4019882
:1038B000504501DBCDF8048000208DF84F000298C0
:1038C0000DF14F07B0F1004F25D02B200E9002983C
:1038D0004FF0020800280CDA404202902D200E9092
:1038E00007E00A210298FCF7D2FC3031029007F879
:1038F000011DB8F10001A8F10108F2DC02980028CE
:10390000EFD1791E0E980870307800F0200040F05A
:10391000450007F8020D12A8C01B00F10708149813
:10392000007800B1012000EB0A01019801EBE07181
:1039300005984144401A401E0590E00306D45B46BA
:103940002146179A059800F05DF805441498007810
:1039500018B15A46179990476D1CE00324D55B4671
:103960002146179A059800F04DF805441CE004988C
:10397000002807DBDDE90301884203DD0098405C95
:10398000179901E0179930205A469047049805F19D
:103990000105401C04900198401E019004D12E2086
:1039A0005A46179990476D1CBAF10001AAF1010A15
:1039B000DDDC05E017F8010B5A46179990476D1C9E
:1039C000B8F10001A8F10108F4DC5B462146179A22
:1039D0000598ABE62D0000002B0000002000000041
:1039E0002DE9F041044600251E461746880404D4FC
:1039F00005E039462020B0476D1C641EF9D52846E5
:103A0000BDE8F0812DE9F041044600251E469046B0
:103A1000C80301D5302700E02027880404D505E03D
:103A200041463846B0476D1C641EF9D52846BDE8AE
:103A3000F0810A68531C0B601070704730B5034664
:103A40004FF0E024A169254C248803FB04F20020F8
:103A50004FF0E0246469B2FBF4F4214D2C704FF078
:103A6000E0246469B2FBF4F504FB1520814215D90A
:103A7000081A00BF1A4C2478002CFBD10A2806D261
:103A800000BF4FF0E024A4690A2CFAD824E000BF5C
:103A90004FF0E024A4698442FAD81DE0104C247849
:103AA000641C0F4D2C704FF0E02464690C44201A04
:103AB00000BF0B4C2478002CFBD10A2806D200BF93
:103AC0004FF0E024A4690A2CFAD805E000BF4FF0BB
:103AD000E024A4698442FAD830BD0000020000202E
:103AE00005000020D4B0FFF761F80A214820FEF756
:103AF0003DFE4FF4E130FDF7CBFDFDF715FC27E16E
:103B00006420FFF79BFF4BAB182234215020FDF7B8
:103B100051FD4BA8FDF70AF80646FCF79CFB05464D
:103B20004FF08E41FCF759FB04464FF08341FCF700
:103B300022FB2F900DF59770FCF7F8FF0646FCF777
:103B40008AFB05464FF08E41FCF747FB04464FF0D9
:103B50008341FCF710FB30904CA8FCF7E7FF0646CA
:103B6000FCF779FB05464FF08E41FCF736FB044627
:103B70004FF08341FCF7FFFA31900DF59970FCF797
:103B8000D5FF0646FCF767FB05464FF08E41FCF774
:103B900024FB04466F49FCF7EEFA2C904DA8FCF785
:103BA000C5FF0646FCF757FB05464FF08E41FCF774
:103BB00014FB04466749FCF7DEFA2D900DF59B7067
:103BC000FCF7B4FF0646FCF746FB05464FF08E4176
:103BD000FCF703FB04465F49FCF7CDFA2E904EA894
:103BE000FCF7A4FF0446FCF736FB29900DF59D7009
:103BF000FCF79CFF0446FCF72EFB2A904FA8FCF72D
:103C000095FF0446FCF727FB2B900DF59F70FCF702
:103C10008DFF0646FCF71FFB05464FF08E41FCF773
:103C2000DCFA04464C49FCF7A6FA269050A8FCF7AB
:103C30007DFF0646FCF70FFB04464FF08E41FCF774
:103C4000CCFA05464449FCF796FA27900DF5A17089
:103C5000FCF76CFF0646FCF7FEFA04464FF08E4177
:103C6000FCF7BBFA05463C49FCF785FA28902898F2
:103C7000FCF7FAFA04460D462798FCF7F5FA0646D3
:103C80000F462698FCF7F0FA804689462B98FCF7F9
:103C9000EBFA82468B462A98FCF7E6FACDE9240136
:103CA0002998FCF7E1FACDE922012E98FCF7DCFA1D
:103CB000CDE920012D98FCF7D7FACDE91E012C980B
:103CC000FCF7D2FACDE91C013198FCF7CDFACDE929
:103CD0001A013098FCF7C8FACDE918012F98FCF7C3
:103CE000C3FACDE90EABCDE91089CDE91267CDE974
:103CF0001445CDE91601DDE92401CDE90C01DDE92A
:103D00002201CDE90A01DDE92001CDE90801DDE963
:103D10001E01CDE90601DDE91C01CDE90401DDE963
:103D20001A01CDE90201DDE91801CDE900010B49D5
:103D300032A8DDE91623FFF70FFA32A8FEF79CFD43
:103D400032A8FCF711FA0446214632A8FFF79EF884
:103D5000D6E600000000FA4400003443F83D0008B5
:103D600012010002020000408304405700020102D9
:103D7000030109024300020100C0320904000001EE
:103D800002020100052400100105240100010424A1
:103D900002020524060001070582030800FF09044A
:103DA0000100020A000000070503024000000705A9
:103DB0008102400000040309041803480069006BF5
:103DC0000065007200200073007500640069006FD8
:103DD0000026035600690072007400750061006CD3
:103DE00000200043004F004D00200050006F007283
:103DF0000074002000200000307835303A20206127
:103E00003A252E336620252E336620252E33662054
:103E1000773A252E336620252E336620252E3366ED
:103E20002020683A252E306620252E306620252E4B
:103E300030662020416E676C653A252E336620255A
:103E40002E336620252E3366200D0A006C3E0008B6
:103E5000000000205C0100003C080008083F00084A
:103E60005C010020EC11000090310008F12D0102EE
:103E7000030404D0090607080902040608142603EF
:103E80005612691272127412751261126C1220129B
:103E900043124F1A4D0812503A6F181A2002011699
:103EA000130D100C1C08AF17040A115D245133C206
:103EB0000112081A04071331311408F12F1B0819D5
:103EC000081A2D0413E12E1B08C9101AB1041A593F
:103ED000041A45041A890441324029440B18D93088
:103EE000741AF11C13603D3308121A720832431A17
:103EF000B50832041AB90832181AD1083226222C11
:083F00002A200841299201204A
:0400000508000131BD
:00000001FF
